{
  "contractName": "Agreement",
  "abi": [
    {
      "constant": true,
      "inputs": [],
      "name": "creator",
      "outputs": [
        {
          "name": "",
          "type": "address"
        }
      ],
      "payable": false,
      "stateMutability": "view",
      "type": "function"
    },
    {
      "constant": true,
      "inputs": [
        {
          "name": "",
          "type": "bytes32"
        }
      ],
      "name": "claimableRewards",
      "outputs": [
        {
          "name": "",
          "type": "uint256"
        }
      ],
      "payable": false,
      "stateMutability": "view",
      "type": "function"
    },
    {
      "constant": false,
      "inputs": [
        {
          "name": "_id",
          "type": "bytes32"
        }
      ],
      "name": "getClaimableRewards",
      "outputs": [
        {
          "name": "",
          "type": "uint256"
        }
      ],
      "payable": false,
      "stateMutability": "nonpayable",
      "type": "function"
    },
    {
      "constant": true,
      "inputs": [],
      "name": "brand",
      "outputs": [
        {
          "name": "",
          "type": "address"
        }
      ],
      "payable": false,
      "stateMutability": "view",
      "type": "function"
    },
    {
      "constant": true,
      "inputs": [
        {
          "name": "_name",
          "type": "string"
        }
      ],
      "name": "currentFulfillment",
      "outputs": [
        {
          "name": "fulfillment",
          "type": "bool"
        }
      ],
      "payable": false,
      "stateMutability": "view",
      "type": "function"
    },
    {
      "constant": true,
      "inputs": [],
      "name": "expiration",
      "outputs": [
        {
          "name": "",
          "type": "uint256"
        }
      ],
      "payable": false,
      "stateMutability": "view",
      "type": "function"
    },
    {
      "constant": true,
      "inputs": [],
      "name": "tokenAddr",
      "outputs": [
        {
          "name": "",
          "type": "address"
        }
      ],
      "payable": false,
      "stateMutability": "view",
      "type": "function"
    },
    {
      "constant": true,
      "inputs": [],
      "name": "startTime",
      "outputs": [
        {
          "name": "",
          "type": "uint256"
        }
      ],
      "payable": false,
      "stateMutability": "view",
      "type": "function"
    },
    {
      "constant": true,
      "inputs": [],
      "name": "content",
      "outputs": [
        {
          "name": "locked",
          "type": "bool"
        }
      ],
      "payable": false,
      "stateMutability": "view",
      "type": "function"
    },
    {
      "constant": true,
      "inputs": [],
      "name": "createdOn",
      "outputs": [
        {
          "name": "",
          "type": "uint256"
        }
      ],
      "payable": false,
      "stateMutability": "view",
      "type": "function"
    },
    {
      "constant": true,
      "inputs": [],
      "name": "claimable",
      "outputs": [
        {
          "name": "",
          "type": "uint256"
        }
      ],
      "payable": false,
      "stateMutability": "view",
      "type": "function"
    },
    {
      "constant": true,
      "inputs": [
        {
          "name": "_name",
          "type": "string"
        }
      ],
      "name": "getContentByName",
      "outputs": [
        {
          "name": "name",
          "type": "string"
        },
        {
          "name": "description",
          "type": "string"
        },
        {
          "name": "reward",
          "type": "uint256"
        },
        {
          "name": "addedOn",
          "type": "uint256"
        }
      ],
      "payable": false,
      "stateMutability": "view",
      "type": "function"
    },
    {
      "constant": true,
      "inputs": [],
      "name": "currentBalance",
      "outputs": [
        {
          "name": "",
          "type": "uint256"
        }
      ],
      "payable": false,
      "stateMutability": "view",
      "type": "function"
    },
    {
      "constant": true,
      "inputs": [],
      "name": "locked",
      "outputs": [
        {
          "name": "",
          "type": "bool"
        }
      ],
      "payable": false,
      "stateMutability": "view",
      "type": "function"
    },
    {
      "inputs": [
        {
          "name": "_creator",
          "type": "address"
        },
        {
          "name": "_expiration",
          "type": "uint256"
        },
        {
          "name": "_token",
          "type": "address"
        }
      ],
      "payable": false,
      "stateMutability": "nonpayable",
      "type": "constructor"
    },
    {
      "constant": false,
      "inputs": [
        {
          "name": "_name",
          "type": "string"
        },
        {
          "name": "_description",
          "type": "string"
        },
        {
          "name": "_reward",
          "type": "uint256"
        }
      ],
      "name": "addContent",
      "outputs": [
        {
          "name": "_success",
          "type": "bool"
        }
      ],
      "payable": false,
      "stateMutability": "nonpayable",
      "type": "function"
    },
    {
      "constant": false,
      "inputs": [
        {
          "name": "_id",
          "type": "bytes32"
        }
      ],
      "name": "fulfillDeliverable",
      "outputs": [
        {
          "name": "",
          "type": "bool"
        }
      ],
      "payable": false,
      "stateMutability": "nonpayable",
      "type": "function"
    },
    {
      "constant": false,
      "inputs": [
        {
          "name": "_id",
          "type": "bytes32"
        }
      ],
      "name": "approveDeliverable",
      "outputs": [
        {
          "name": "",
          "type": "bool"
        }
      ],
      "payable": false,
      "stateMutability": "nonpayable",
      "type": "function"
    },
    {
      "constant": false,
      "inputs": [
        {
          "name": "_id",
          "type": "bytes32"
        }
      ],
      "name": "claim",
      "outputs": [],
      "payable": false,
      "stateMutability": "nonpayable",
      "type": "function"
    },
    {
      "constant": false,
      "inputs": [],
      "name": "lock",
      "outputs": [],
      "payable": false,
      "stateMutability": "nonpayable",
      "type": "function"
    },
    {
      "constant": false,
      "inputs": [
        {
          "name": "_expiration",
          "type": "uint256"
        }
      ],
      "name": "extendExpiration",
      "outputs": [
        {
          "name": "",
          "type": "bool"
        }
      ],
      "payable": false,
      "stateMutability": "nonpayable",
      "type": "function"
    },
    {
      "constant": false,
      "inputs": [],
      "name": "destroy",
      "outputs": [],
      "payable": false,
      "stateMutability": "nonpayable",
      "type": "function"
    },
    {
      "constant": false,
      "inputs": [],
      "name": "deposit",
      "outputs": [],
      "payable": true,
      "stateMutability": "payable",
      "type": "function"
    }
  ],
  "bytecode": "0x608060405230600360006101000a81548173ffffffffffffffffffffffffffffffffffffffff021916908373ffffffffffffffffffffffffffffffffffffffff1602179055506000600555600060065534801561005b57600080fd5b506040516060806118eb8339810180604052810190808051906020019092919080519060200190929190805190602001909291905050508080600460006101000a81548173ffffffffffffffffffffffffffffffffffffffff021916908373ffffffffffffffffffffffffffffffffffffffff1602179055505033600c60006101000a81548173ffffffffffffffffffffffffffffffffffffffff021916908373ffffffffffffffffffffffffffffffffffffffff16021790555082600d60006101000a81548173ffffffffffffffffffffffffffffffffffffffff021916908373ffffffffffffffffffffffffffffffffffffffff16021790555081600a8190555050505061177b806101706000396000f300608060405260043610610128576000357c0100000000000000000000000000000000000000000000000000000000900463ffffffff16806302d05d3f1461012d57806305927006146101845780630a114a70146101c957806324e8b3ec1461020e5780632d9fff01146102535780633b72a1b6146102aa578063418c7de1146102f35780634665096d146103745780635fbe4d1d1461039f57806370097106146103f657806378e97925146104c757806383197ef0146104f25780638a4d5a67146105095780639f2ce59414610538578063af38d75714610563578063bd66528a1461058e578063c3e0bbad146105bf578063ce845d1d1461071b578063cf30901214610746578063d0e30db014610775578063d30fa9461461077f578063f83d08ba146107c8575b600080fd5b34801561013957600080fd5b506101426107df565b604051808273ffffffffffffffffffffffffffffffffffffffff1673ffffffffffffffffffffffffffffffffffffffff16815260200191505060405180910390f35b34801561019057600080fd5b506101b36004803603810190808035600019169060200190929190505050610805565b6040518082815260200191505060405180910390f35b3480156101d557600080fd5b506101f46004803603810190808035906020019092919050505061081d565b604051808215151515815260200191505060405180910390f35b34801561021a57600080fd5b5061023d60048036038101908080356000191690602001909291905050506108a7565b6040518082815260200191505060405180910390f35b34801561025f57600080fd5b506102686108cc565b604051808273ffffffffffffffffffffffffffffffffffffffff1673ffffffffffffffffffffffffffffffffffffffff16815260200191505060405180910390f35b3480156102b657600080fd5b506102d960048036038101908080356000191690602001909291905050506108f2565b604051808215151515815260200191505060405180910390f35b3480156102ff57600080fd5b5061035a600480360381019080803590602001908201803590602001908080601f0160208091040260200160405190810160405280939291908181526020018383808284378201915050505050509192919290505050610960565b604051808215151515815260200191505060405180910390f35b34801561038057600080fd5b50610389610b03565b6040518082815260200191505060405180910390f35b3480156103ab57600080fd5b506103b4610b09565b604051808273ffffffffffffffffffffffffffffffffffffffff1673ffffffffffffffffffffffffffffffffffffffff16815260200191505060405180910390f35b34801561040257600080fd5b506104ad600480360381019080803590602001908201803590602001908080601f0160208091040260200160405190810160405280939291908181526020018383808284378201915050505050509192919290803590602001908201803590602001908080601f016020809104026020016040519081016040528093929190818152602001838380828437820191505050505050919291929080359060200190929190505050610b2f565b604051808215151515815260200191505060405180910390f35b3480156104d357600080fd5b506104dc610d5f565b6040518082815260200191505060405180910390f35b3480156104fe57600080fd5b50610507610d65565b005b34801561051557600080fd5b5061051e610dea565b604051808215151515815260200191505060405180910390f35b34801561054457600080fd5b5061054d610e03565b6040518082815260200191505060405180910390f35b34801561056f57600080fd5b50610578610e09565b6040518082815260200191505060405180910390f35b34801561059a57600080fd5b506105bd6004803603810190808035600019169060200190929190505050610e0f565b005b3480156105cb57600080fd5b50610626600480360381019080803590602001908201803590602001908080601f0160208091040260200160405190810160405280939291908181526020018383808284378201915050505050509192919290505050610e8f565b604051808060200180602001858152602001848152602001838103835287818151815260200191508051906020019080838360005b8381101561067657808201518184015260208101905061065b565b50505050905090810190601f1680156106a35780820380516001836020036101000a031916815260200191505b50838103825286818151815260200191508051906020019080838360005b838110156106dc5780820151818401526020810190506106c1565b50505050905090810190601f1680156107095780820380516001836020036101000a031916815260200191505b50965050505050505060405180910390f35b34801561072757600080fd5b50610730611171565b6040518082815260200191505060405180910390f35b34801561075257600080fd5b5061075b611177565b604051808215151515815260200191505060405180910390f35b61077d61118a565b005b34801561078b57600080fd5b506107ae600480360381019080803560001916906020019092919050505061118c565b604051808215151515815260200191505060405180910390f35b3480156107d457600080fd5b506107dd61120a565b005b600d60009054906101000a900473ffffffffffffffffffffffffffffffffffffffff1681565b60076020528060005260406000206000915090505481565b6000600c60009054906101000a900473ffffffffffffffffffffffffffffffffffffffff1673ffffffffffffffffffffffffffffffffffffffff163373ffffffffffffffffffffffffffffffffffffffff1614151561087b57600080fd5b600a548211801561088c5750428210155b151561089757600080fd5b81600a8190555060019050919050565b6000600760008360001916600019168152602001908152602001600020549050919050565b600c60009054906101000a900473ffffffffffffffffffffffffffffffffffffffff1681565b6000600c60009054906101000a900473ffffffffffffffffffffffffffffffffffffffff1673ffffffffffffffffffffffffffffffffffffffff163373ffffffffffffffffffffffffffffffffffffffff1614151561095057600080fd5b610959826112a0565b9050919050565b60008060008073__ContentUtils__________________________6351d7b89a9091866040518363ffffffff167c01000000000000000000000000000000000000000000000000000000000281526004018083815260200180602001828103825283818151815260200191508051906020019080838360005b838110156109f45780820151818401526020810190506109d9565b50505050905090810190601f168015610a215780820380516001836020036101000a031916815260200191505b50935050505060006040518083038186803b158015610a3f57600080fd5b505af4158015610a53573d6000803e3d6000fd5b505050506040513d6000823e3d601f19601f820116820180604052506040811015610a7d57600080fd5b810190808051906020019092919080519060200190929190505050915091508015610afb578160040160010160003373ffffffffffffffffffffffffffffffffffffffff1673ffffffffffffffffffffffffffffffffffffffff16815260200190815260200160002060009054906101000a900460ff169250610afc565b5b5050919050565b600a5481565b600460009054906101000a900473ffffffffffffffffffffffffffffffffffffffff1681565b6000600860009054906101000a900460ff16151515610b4d57600080fd5b600c60009054906101000a900473ffffffffffffffffffffffffffffffffffffffff1673ffffffffffffffffffffffffffffffffffffffff163373ffffffffffffffffffffffffffffffffffffffff16141515610ba957600080fd5b81600081118015610bbf5750610bbe81611471565b5b1515610bca57600080fd5b600073__ContentUtils__________________________6377fc455990918787876040518563ffffffff167c0100000000000000000000000000000000000000000000000000000000028152600401808581526020018060200180602001848152602001838103835286818151815260200191508051906020019080838360005b83811015610c66578082015181840152602081019050610c4b565b50505050905090810190601f168015610c935780820380516001836020036101000a031916815260200191505b50838103825285818151815260200191508051906020019080838360005b83811015610ccc578082015181840152602081019050610cb1565b50505050905090810190601f168015610cf95780820380516001836020036101000a031916815260200191505b50965050505050505060206040518083038186803b158015610d1a57600080fd5b505af4158015610d2e573d6000803e3d6000fd5b505050506040513d6020811015610d4457600080fd5b81019080805190602001909291905050509150509392505050565b600b5481565b600c60009054906101000a900473ffffffffffffffffffffffffffffffffffffffff1673ffffffffffffffffffffffffffffffffffffffff163373ffffffffffffffffffffffffffffffffffffffff16141515610dc157600080fd5b600a5442111515610dd157600080fd5b3373ffffffffffffffffffffffffffffffffffffffff16ff5b60008060020160009054906101000a900460ff16905081565b60095481565b60055481565b600d60009054906101000a900473ffffffffffffffffffffffffffffffffffffffff1673ffffffffffffffffffffffffffffffffffffffff163373ffffffffffffffffffffffffffffffffffffffff16141515610e6b57600080fd5b60006007600083600019166000191681526020019081526020016000208190555050565b606080600080600080600073__ContentUtils__________________________6351d7b89a9091896040518363ffffffff167c01000000000000000000000000000000000000000000000000000000000281526004018083815260200180602001828103825283818151815260200191508051906020019080838360005b83811015610f28578082015181840152602081019050610f0d565b50505050905090810190601f168015610f555780820380516001836020036101000a031916815260200191505b50935050505060006040518083038186803b158015610f7357600080fd5b505af4158015610f87573d6000803e3d6000fd5b505050506040513d6000823e3d601f19601f820116820180604052506040811015610fb157600080fd5b81019080805190602001909291908051906020019092919050505091509150801561113057816001018260020183600401600001548460030154838054600181600116156101000203166002900480601f0160208091040260200160405190810160405280929190818152602001828054600181600116156101000203166002900480156110805780601f1061105557610100808354040283529160200191611080565b820191906000526020600020905b81548152906001019060200180831161106357829003601f168201915b50505050509350828054600181600116156101000203166002900480601f01602080910402602001604051908101604052809291908181526020018280546001816001161561010002031660029004801561111c5780601f106110f15761010080835404028352916020019161111c565b820191906000526020600020905b8154815290600101906020018083116110ff57829003601f168201915b505050505092509550955095509550611168565b600080602060405190810160405280600081525091906020604051908101604052806000815250919081915080905095509550955095505b50509193509193565b60065481565b600860009054906101000a900460ff1681565b565b6000600a544210151561119e57600080fd5b600d60009054906101000a900473ffffffffffffffffffffffffffffffffffffffff1673ffffffffffffffffffffffffffffffffffffffff163373ffffffffffffffffffffffffffffffffffffffff161415156111fa57600080fd5b611203826112a0565b9050919050565b600c60009054906101000a900473ffffffffffffffffffffffffffffffffffffffff1673ffffffffffffffffffffffffffffffffffffffff163373ffffffffffffffffffffffffffffffffffffffff1614151561126657600080fd5b60011515600060020160009054906101000a905050506001600860006101000a81548160ff02191690831515021790555042600b81905550565b600080600073__ContentUtils__________________________635e465cc6909185600d60009054906101000a900473ffffffffffffffffffffffffffffffffffffffff16600c60009054906101000a900473ffffffffffffffffffffffffffffffffffffffff166040518563ffffffff167c01000000000000000000000000000000000000000000000000000000000281526004018085815260200184600019166000191681526020018373ffffffffffffffffffffffffffffffffffffffff1673ffffffffffffffffffffffffffffffffffffffff1681526020018273ffffffffffffffffffffffffffffffffffffffff1673ffffffffffffffffffffffffffffffffffffffff16815260200194505050505060206040518083038186803b1580156113cd57600080fd5b505af41580156113e1573d6000803e3d6000fd5b505050506040513d60208110156113f757600080fd5b8101908080519060200190929190505050905080156114665761145f83600d60009054906101000a900473ffffffffffffffffffffffffffffffffffffffff16600c60009054906101000a900473ffffffffffffffffffffffffffffffffffffffff16611497565b915061146b565b600091505b50919050565b6000611488826006546116a490919063ffffffff16565b60068190555060019050919050565b60008073__ContentUtils__________________________63c37a5a5e90918686866040518563ffffffff167c01000000000000000000000000000000000000000000000000000000000281526004018085815260200184600019166000191681526020018373ffffffffffffffffffffffffffffffffffffffff1673ffffffffffffffffffffffffffffffffffffffff1681526020018273ffffffffffffffffffffffffffffffffffffffff1673ffffffffffffffffffffffffffffffffffffffff16815260200194505050505060206040518083038186803b15801561157e57600080fd5b505af4158015611592573d6000803e3d6000fd5b505050506040513d60208110156115a857600080fd5b810190808051906020019092919050505015156115c457600080fd5b6115d88460006116c090919063ffffffff16565b5061169b84600073__ContentUtils__________________________6385e2fffe9091886040518363ffffffff167c01000000000000000000000000000000000000000000000000000000000281526004018083815260200182600019166000191681526020019250505060206040518083038186803b15801561165b57600080fd5b505af415801561166f573d6000803e3d6000fd5b505050506040513d602081101561168557600080fd5b8101908080519060200190929190505050611708565b90509392505050565b600081830190508281101515156116b757fe5b80905092915050565b60006001836000016000846000191660001916815260200190815260200160002060040160020160006101000a81548160ff0219169083151502179055506001905092915050565b600061171f826005546116a490919063ffffffff16565b600581905550816007600085600019166000191681526020019081526020016000208190555060019050929150505600a165627a7a72305820bc9346b25321e08c59d482bee669166fd668dfd830e47909de3664250da2dc3e0029",
  "source": "pragma solidity ^0.4.23;\n\nimport './Escrow.sol';\nimport './ContentUtils.sol';\n\ncontract Agreement is Escrow {\n    \n    bool public locked;\n    uint  public createdOn;\n    uint public expiration;\n    uint public startTime;\n    address public brand;\n    address public creator;\n    \n    constructor(address _creator, uint _expiration, address _token) Escrow(_token) public {\n        brand = msg.sender;\n        creator = _creator;\n        expiration = _expiration;\n    }\n\n    /// @notice only brand is authorized\n    modifier onlyBrand() {\n        require(msg.sender == brand);\n        _;\n    }\n\n    /// @notice only creator is authorized\n    modifier onlyCreator() {\n        require(msg.sender == creator);\n        _;\n    }\n\n    /// @notice deliverable fulfilled\n    modifier fulfilled(bytes32 _id) {\n        require(content.isFulfilled(_id, creator, brand));\n        _;\n    }\n\n    /// @notice agreement expired, refunds remaining balance in escrow\n    modifier expired() {\n        require(block.timestamp > expiration);\n        _;\n    }\n\n    /// @notice agreement not expired, refunds remaining balance in escrow\n    modifier notExpired() {\n        require(block.timestamp < expiration);\n        _;\n    }\n\n    /// @notice agreement not locked\n    modifier notLocked() {\n        require(!locked);\n        _;\n    }\n\n    /// @notice add content to the agreement\n    function addContent(string _name, \n        string _description, \n        uint _reward) notLocked onlyBrand validReward(_reward) \n        public returns(bool _success) {\n            return content.put(_name, _description, _reward);\n    }\n\n    function _fulfill(bytes32 _id) private returns (bool) {\n        bool _fulfilled = content.fulfill(_id, creator, brand);\n        if(_fulfilled) {\n            return completeDeliverable(_id, creator, brand);\n        }\n\n        return false;\n    }\n\n    function fulfillDeliverable(bytes32 _id) notExpired onlyCreator public returns (bool) {\n        return _fulfill(_id);\n    }\n\n    function approveDeliverable(bytes32 _id) onlyBrand public returns (bool) {\n        return _fulfill(_id);\n    }\n    \n    function claim(bytes32 _id) external onlyCreator {\n        claimableRewards[_id] = 0;\n    }\n\n\n    function lock() onlyBrand public {\n        content.locked == true;\n        locked = true;\n        startTime = block.timestamp;\n    }\n\n    function extendExpiration(uint _expiration) onlyBrand public returns (bool) {\n        require(_expiration > expiration && _expiration >= block.timestamp);\n        expiration = _expiration;\n        return true;\n    }\n\n    function destroy() onlyBrand expired public {\n        selfdestruct(msg.sender);\n    }\n\n    function deposit() payable {}\n}\n",
  "sourcePath": "credit-coin-contracts/contracts/Agreement.sol",
  "compiler": {
    "name": "solc",
    "version": "0.4.24+commit.e67f0147.Emscripten.clang"
  },
  "schemaVersion": "2.0.0",
  "updatedAt": "2018-06-20T06:15:32.317Z"
}