{
  "contractName": "CCOIN",
  "abi": [
    {
      "constant": true,
      "inputs": [],
      "name": "tokenPriceWei",
      "outputs": [
        {
          "name": "",
          "type": "uint256"
        }
      ],
      "payable": false,
      "stateMutability": "view",
      "type": "function"
    },
    {
      "constant": true,
      "inputs": [],
      "name": "name",
      "outputs": [
        {
          "name": "",
          "type": "string"
        }
      ],
      "payable": false,
      "stateMutability": "view",
      "type": "function"
    },
    {
      "constant": true,
      "inputs": [],
      "name": "endBlock",
      "outputs": [
        {
          "name": "",
          "type": "uint256"
        }
      ],
      "payable": false,
      "stateMutability": "view",
      "type": "function"
    },
    {
      "constant": true,
      "inputs": [],
      "name": "totalSupply",
      "outputs": [
        {
          "name": "",
          "type": "uint256"
        }
      ],
      "payable": false,
      "stateMutability": "view",
      "type": "function"
    },
    {
      "constant": true,
      "inputs": [],
      "name": "multiplier",
      "outputs": [
        {
          "name": "",
          "type": "uint256"
        }
      ],
      "payable": false,
      "stateMutability": "view",
      "type": "function"
    },
    {
      "constant": true,
      "inputs": [],
      "name": "stopInEmergency",
      "outputs": [
        {
          "name": "",
          "type": "bool"
        }
      ],
      "payable": false,
      "stateMutability": "view",
      "type": "function"
    },
    {
      "constant": true,
      "inputs": [],
      "name": "maxCap",
      "outputs": [
        {
          "name": "",
          "type": "uint256"
        }
      ],
      "payable": false,
      "stateMutability": "view",
      "type": "function"
    },
    {
      "constant": true,
      "inputs": [],
      "name": "decimals",
      "outputs": [
        {
          "name": "",
          "type": "uint256"
        }
      ],
      "payable": false,
      "stateMutability": "view",
      "type": "function"
    },
    {
      "constant": true,
      "inputs": [],
      "name": "minCap",
      "outputs": [
        {
          "name": "",
          "type": "uint256"
        }
      ],
      "payable": false,
      "stateMutability": "view",
      "type": "function"
    },
    {
      "constant": false,
      "inputs": [],
      "name": "kill",
      "outputs": [],
      "payable": false,
      "stateMutability": "nonpayable",
      "type": "function"
    },
    {
      "constant": true,
      "inputs": [],
      "name": "startBlock",
      "outputs": [
        {
          "name": "",
          "type": "uint256"
        }
      ],
      "payable": false,
      "stateMutability": "view",
      "type": "function"
    },
    {
      "constant": true,
      "inputs": [],
      "name": "multisigETH",
      "outputs": [
        {
          "name": "",
          "type": "address"
        }
      ],
      "payable": false,
      "stateMutability": "view",
      "type": "function"
    },
    {
      "constant": true,
      "inputs": [],
      "name": "owner",
      "outputs": [
        {
          "name": "",
          "type": "address"
        }
      ],
      "payable": false,
      "stateMutability": "view",
      "type": "function"
    },
    {
      "constant": true,
      "inputs": [],
      "name": "symbol",
      "outputs": [
        {
          "name": "",
          "type": "string"
        }
      ],
      "payable": false,
      "stateMutability": "view",
      "type": "function"
    },
    {
      "constant": true,
      "inputs": [],
      "name": "totalTokensSent",
      "outputs": [
        {
          "name": "",
          "type": "uint256"
        }
      ],
      "payable": false,
      "stateMutability": "view",
      "type": "function"
    },
    {
      "constant": true,
      "inputs": [],
      "name": "locked",
      "outputs": [
        {
          "name": "",
          "type": "bool"
        }
      ],
      "payable": false,
      "stateMutability": "view",
      "type": "function"
    },
    {
      "constant": true,
      "inputs": [],
      "name": "crowdSaleaddress",
      "outputs": [
        {
          "name": "",
          "type": "address"
        }
      ],
      "payable": false,
      "stateMutability": "view",
      "type": "function"
    },
    {
      "constant": true,
      "inputs": [
        {
          "name": "",
          "type": "address"
        }
      ],
      "name": "whitelisted",
      "outputs": [
        {
          "name": "",
          "type": "bool"
        }
      ],
      "payable": false,
      "stateMutability": "view",
      "type": "function"
    },
    {
      "constant": false,
      "inputs": [
        {
          "name": "newOwner",
          "type": "address"
        }
      ],
      "name": "transferOwnership",
      "outputs": [],
      "payable": false,
      "stateMutability": "nonpayable",
      "type": "function"
    },
    {
      "constant": true,
      "inputs": [],
      "name": "minContributionETH",
      "outputs": [
        {
          "name": "",
          "type": "uint256"
        }
      ],
      "payable": false,
      "stateMutability": "view",
      "type": "function"
    },
    {
      "constant": true,
      "inputs": [],
      "name": "ethReceived",
      "outputs": [
        {
          "name": "",
          "type": "uint256"
        }
      ],
      "payable": false,
      "stateMutability": "view",
      "type": "function"
    },
    {
      "inputs": [],
      "payable": false,
      "stateMutability": "nonpayable",
      "type": "constructor"
    },
    {
      "payable": true,
      "stateMutability": "payable",
      "type": "fallback"
    },
    {
      "anonymous": false,
      "inputs": [
        {
          "indexed": true,
          "name": "participant",
          "type": "address"
        }
      ],
      "name": "Whitelist",
      "type": "event"
    },
    {
      "anonymous": false,
      "inputs": [],
      "name": "Locked",
      "type": "event"
    },
    {
      "anonymous": false,
      "inputs": [],
      "name": "Unlocked",
      "type": "event"
    },
    {
      "anonymous": false,
      "inputs": [],
      "name": "StoppedCrowdsale",
      "type": "event"
    },
    {
      "anonymous": false,
      "inputs": [],
      "name": "RestartedCrowdsale",
      "type": "event"
    },
    {
      "anonymous": false,
      "inputs": [
        {
          "indexed": false,
          "name": "value",
          "type": "uint256"
        }
      ],
      "name": "Burned",
      "type": "event"
    },
    {
      "anonymous": false,
      "inputs": [
        {
          "indexed": true,
          "name": "from",
          "type": "address"
        },
        {
          "indexed": true,
          "name": "to",
          "type": "address"
        },
        {
          "indexed": false,
          "name": "value",
          "type": "uint256"
        }
      ],
      "name": "Transfer",
      "type": "event"
    },
    {
      "anonymous": false,
      "inputs": [
        {
          "indexed": true,
          "name": "owner",
          "type": "address"
        },
        {
          "indexed": true,
          "name": "spender",
          "type": "address"
        },
        {
          "indexed": false,
          "name": "value",
          "type": "uint256"
        }
      ],
      "name": "Approval",
      "type": "event"
    },
    {
      "constant": false,
      "inputs": [
        {
          "name": "_newCrowdSaleaddress",
          "type": "address"
        }
      ],
      "name": "resetCrowdSaleaddress",
      "outputs": [],
      "payable": false,
      "stateMutability": "nonpayable",
      "type": "function"
    },
    {
      "constant": false,
      "inputs": [],
      "name": "unlock",
      "outputs": [],
      "payable": false,
      "stateMutability": "nonpayable",
      "type": "function"
    },
    {
      "constant": false,
      "inputs": [],
      "name": "lock",
      "outputs": [],
      "payable": false,
      "stateMutability": "nonpayable",
      "type": "function"
    },
    {
      "constant": false,
      "inputs": [
        {
          "name": "_member",
          "type": "address"
        },
        {
          "name": "_value",
          "type": "uint256"
        }
      ],
      "name": "burn",
      "outputs": [
        {
          "name": "",
          "type": "bool"
        }
      ],
      "payable": false,
      "stateMutability": "nonpayable",
      "type": "function"
    },
    {
      "constant": false,
      "inputs": [
        {
          "name": "_to",
          "type": "address"
        },
        {
          "name": "_tokens",
          "type": "uint256"
        }
      ],
      "name": "Airdrop",
      "outputs": [
        {
          "name": "",
          "type": "bool"
        }
      ],
      "payable": false,
      "stateMutability": "nonpayable",
      "type": "function"
    },
    {
      "constant": false,
      "inputs": [
        {
          "name": "_to",
          "type": "address"
        },
        {
          "name": "_value",
          "type": "uint256"
        }
      ],
      "name": "transfer",
      "outputs": [
        {
          "name": "",
          "type": "bool"
        }
      ],
      "payable": false,
      "stateMutability": "nonpayable",
      "type": "function"
    },
    {
      "constant": false,
      "inputs": [
        {
          "name": "_from",
          "type": "address"
        },
        {
          "name": "_to",
          "type": "address"
        },
        {
          "name": "_value",
          "type": "uint256"
        }
      ],
      "name": "transferFrom",
      "outputs": [
        {
          "name": "success",
          "type": "bool"
        }
      ],
      "payable": false,
      "stateMutability": "nonpayable",
      "type": "function"
    },
    {
      "constant": true,
      "inputs": [
        {
          "name": "_owner",
          "type": "address"
        }
      ],
      "name": "balanceOf",
      "outputs": [
        {
          "name": "balance",
          "type": "uint256"
        }
      ],
      "payable": false,
      "stateMutability": "view",
      "type": "function"
    },
    {
      "constant": false,
      "inputs": [
        {
          "name": "_spender",
          "type": "address"
        },
        {
          "name": "_value",
          "type": "uint256"
        }
      ],
      "name": "approve",
      "outputs": [
        {
          "name": "",
          "type": "bool"
        }
      ],
      "payable": false,
      "stateMutability": "nonpayable",
      "type": "function"
    },
    {
      "constant": true,
      "inputs": [
        {
          "name": "_owner",
          "type": "address"
        },
        {
          "name": "_spender",
          "type": "address"
        }
      ],
      "name": "allowance",
      "outputs": [
        {
          "name": "remaining",
          "type": "uint256"
        }
      ],
      "payable": false,
      "stateMutability": "view",
      "type": "function"
    },
    {
      "constant": false,
      "inputs": [
        {
          "name": "_agreementAddr",
          "type": "address"
        },
        {
          "name": "_id",
          "type": "bytes32"
        }
      ],
      "name": "withdrawFromEscrow",
      "outputs": [],
      "payable": false,
      "stateMutability": "nonpayable",
      "type": "function"
    },
    {
      "constant": false,
      "inputs": [
        {
          "name": "participant",
          "type": "address"
        }
      ],
      "name": "WhitelistParticipant",
      "outputs": [],
      "payable": false,
      "stateMutability": "nonpayable",
      "type": "function"
    },
    {
      "constant": false,
      "inputs": [
        {
          "name": "participant",
          "type": "address"
        }
      ],
      "name": "BlacklistParticipant",
      "outputs": [],
      "payable": false,
      "stateMutability": "nonpayable",
      "type": "function"
    },
    {
      "constant": false,
      "inputs": [],
      "name": "stopCrowdsale",
      "outputs": [],
      "payable": false,
      "stateMutability": "nonpayable",
      "type": "function"
    },
    {
      "constant": false,
      "inputs": [],
      "name": "restartCrowdsale",
      "outputs": [],
      "payable": false,
      "stateMutability": "nonpayable",
      "type": "function"
    }
  ],
  "bytecode": "0x60806040526b033b2e3c9fd0803ce80000006002556000601860006101000a81548160ff0219169083151502179055503480156200003c57600080fd5b5033600160006101000a81548173ffffffffffffffffffffffffffffffffffffffff021916908373ffffffffffffffffffffffffffffffffffffffff1602179055506001600360006101000a81548160ff021916908315150217905550670de0b6b3a764000060178190555033600360016101000a81548173ffffffffffffffffffffffffffffffffffffffff021916908373ffffffffffffffffffffffffffffffffffffffff1602179055506001600b81905550600060078190555060006008819055506017546103e8026009819055506200013160016105786200022d6401000000000262002508176401000000009004565b600c81905550601754606402600a8190555060006006819055506064600d8190555060c8600e8190555061012c600f819055506101906010819055506101f460118190555060786012819055506073601381905550606e601481905550620001b1610433600a6200022d6401000000000262002508176401000000009004565b601581905550606960168190555060025460196000600360019054906101000a900473ffffffffffffffffffffffffffffffffffffffff1673ffffffffffffffffffffffffffffffffffffffff1673ffffffffffffffffffffffffffffffffffffffff1681526020019081526020016000208190555062000244565b600081838115156200023b57fe5b04905092915050565b61254a80620002546000396000f3006080604052600436106101c2576000357c0100000000000000000000000000000000000000000000000000000000900463ffffffff16806305d0f15b146101e757806306fdde0314610212578063083c6323146102a2578063095ea7b3146102cd578063144136a11461033257806318160ddd146103495780631b3ed7221461037457806322763ae11461039f57806323548b8b146103ce57806323b872dd146103f9578063266632031461047e578063313ce567146104cf5780633fa615b0146104fa57806341c0e1b51461052557806348cd4cb11461053c578063507d5954146105675780635b2ca6411461057e578063630babac146105c157806370a0823114610604578063823914d91461065b5780638c32c568146106b25780638da5cb5b1461071757806395d89b411461076e5780639dc29fac146107fe578063a69df4b514610863578063a9059cbb1461087a578063ac1559d2146108df578063cf3090121461090a578063d04d2ca314610939578063d725a9f01461097c578063d936547e146109d3578063dd62ed3e14610a2e578063f2fde38b14610aa5578063f566381914610ae8578063f5f2de3414610b13578063f83d08ba14610b3e575b6002600460208202016000369050101515156101da57fe5b6101e333610b55565b5050005b3480156101f357600080fd5b506101fc610bce565b6040518082815260200191505060405180910390f35b34801561021e57600080fd5b50610227610bd4565b6040518080602001828103825283818151815260200191508051906020019080838360005b8381101561026757808201518184015260208101905061024c565b50505050905090810190601f1680156102945780820380516001836020036101000a031916815260200191505b509250505060405180910390f35b3480156102ae57600080fd5b506102b7610c0d565b6040518082815260200191505060405180910390f35b3480156102d957600080fd5b50610318600480360381019080803573ffffffffffffffffffffffffffffffffffffffff16906020019092919080359060200190929190505050610c13565b604051808215151515815260200191505060405180910390f35b34801561033e57600080fd5b50610347610d05565b005b34801561035557600080fd5b5061035e610da5565b6040518082815260200191505060405180910390f35b34801561038057600080fd5b50610389610dab565b6040518082815260200191505060405180910390f35b3480156103ab57600080fd5b506103b4610db1565b604051808215151515815260200191505060405180910390f35b3480156103da57600080fd5b506103e3610dc4565b6040518082815260200191505060405180910390f35b34801561040557600080fd5b50610464600480360381019080803573ffffffffffffffffffffffffffffffffffffffff169060200190929190803573ffffffffffffffffffffffffffffffffffffffff16906020019092919080359060200190929190505050610dca565b604051808215151515815260200191505060405180910390f35b34801561048a57600080fd5b506104cd600480360381019080803573ffffffffffffffffffffffffffffffffffffffff16906020019092919080356000191690602001909291905050506111fd565b005b3480156104db57600080fd5b506104e461150a565b6040518082815260200191505060405180910390f35b34801561050657600080fd5b5061050f61150f565b6040518082815260200191505060405180910390f35b34801561053157600080fd5b5061053a611515565b005b34801561054857600080fd5b506105516115a8565b6040518082815260200191505060405180910390f35b34801561057357600080fd5b5061057c6115ae565b005b34801561058a57600080fd5b506105bf600480360381019080803573ffffffffffffffffffffffffffffffffffffffff16906020019092919050505061164e565b005b3480156105cd57600080fd5b50610602600480360381019080803573ffffffffffffffffffffffffffffffffffffffff169060200190929190505050611748565b005b34801561061057600080fd5b50610645600480360381019080803573ffffffffffffffffffffffffffffffffffffffff16906020019092919050505061189c565b6040518082815260200191505060405180910390f35b34801561066757600080fd5b506106706118e5565b604051808273ffffffffffffffffffffffffffffffffffffffff1673ffffffffffffffffffffffffffffffffffffffff16815260200191505060405180910390f35b3480156106be57600080fd5b506106fd600480360381019080803573ffffffffffffffffffffffffffffffffffffffff1690602001909291908035906020019092919050505061190b565b604051808215151515815260200191505060405180910390f35b34801561072357600080fd5b5061072c6119de565b604051808273ffffffffffffffffffffffffffffffffffffffff1673ffffffffffffffffffffffffffffffffffffffff16815260200191505060405180910390f35b34801561077a57600080fd5b50610783611a04565b6040518080602001828103825283818151815260200191508051906020019080838360005b838110156107c35780820151818401526020810190506107a8565b50505050905090810190601f1680156107f05780820380516001836020036101000a031916815260200191505b509250505060405180910390f35b34801561080a57600080fd5b50610849600480360381019080803573ffffffffffffffffffffffffffffffffffffffff16906020019092919080359060200190929190505050611a3d565b604051808215151515815260200191505060405180910390f35b34801561086f57600080fd5b50610878611c24565b005b34801561088657600080fd5b506108c5600480360381019080803573ffffffffffffffffffffffffffffffffffffffff16906020019092919080359060200190929190505050611d23565b604051808215151515815260200191505060405180910390f35b3480156108eb57600080fd5b506108f4611f7a565b6040518082815260200191505060405180910390f35b34801561091657600080fd5b5061091f611f80565b604051808215151515815260200191505060405180910390f35b34801561094557600080fd5b5061097a600480360381019080803573ffffffffffffffffffffffffffffffffffffffff169060200190929190505050611f93565b005b34801561098857600080fd5b506109916120e7565b604051808273ffffffffffffffffffffffffffffffffffffffff1673ffffffffffffffffffffffffffffffffffffffff16815260200191505060405180910390f35b3480156109df57600080fd5b50610a14600480360381019080803573ffffffffffffffffffffffffffffffffffffffff16906020019092919050505061210d565b604051808215151515815260200191505060405180910390f35b348015610a3a57600080fd5b50610a8f600480360381019080803573ffffffffffffffffffffffffffffffffffffffff169060200190929190803573ffffffffffffffffffffffffffffffffffffffff16906020019092919050505061212d565b6040518082815260200191505060405180910390f35b348015610ab157600080fd5b50610ae6600480360381019080803573ffffffffffffffffffffffffffffffffffffffff1690602001909291905050506121b4565b005b348015610af457600080fd5b50610afd612286565b6040518082815260200191505060405180910390f35b348015610b1f57600080fd5b50610b2861228c565b6040518082815260200191505060405180910390f35b348015610b4a57600080fd5b50610b53612292565b005b600080600b54341015610b6757600080fd5b610b6f612391565b9050600954610b806006548361249b565b1115610b8b57600080fd5b610b958382611d23565b1515610ba057600080fd5b610bac6005543461249b565b600581905550610bbe6006548261249b565b6006819055506001915050919050565b600c5481565b6040805190810160405280600581526020017f43434f494e00000000000000000000000000000000000000000000000000000081525081565b60085481565b600081601a60003373ffffffffffffffffffffffffffffffffffffffff1673ffffffffffffffffffffffffffffffffffffffff16815260200190815260200160002060008573ffffffffffffffffffffffffffffffffffffffff1673ffffffffffffffffffffffffffffffffffffffff168152602001908152602001600020819055508273ffffffffffffffffffffffffffffffffffffffff163373ffffffffffffffffffffffffffffffffffffffff167f8c5be1e5ebec7d5bd14f71427d1e84f3dd0314c0f7b2291e5b200ac8c7c3b925846040518082815260200191505060405180910390a36001905092915050565b600160009054906101000a900473ffffffffffffffffffffffffffffffffffffffff1673ffffffffffffffffffffffffffffffffffffffff163373ffffffffffffffffffffffffffffffffffffffff161415610da3576000601860006101000a81548160ff0219169083151502179055507f98bb8d6a8da1f2c9a7bbd8b2f26b35214f905d624d1609f59959bbe8e280bbc560405160405180910390a15b565b60025481565b60175481565b601860009054906101000a900460ff1681565b60095481565b6000600460009054906101000a900473ffffffffffffffffffffffffffffffffffffffff1673ffffffffffffffffffffffffffffffffffffffff163373ffffffffffffffffffffffffffffffffffffffff1614158015610e365750600360009054906101000a900460ff165b8015610e905750600160009054906101000a900473ffffffffffffffffffffffffffffffffffffffff1673ffffffffffffffffffffffffffffffffffffffff163373ffffffffffffffffffffffffffffffffffffffff1614155b15610e9a57600080fd5b81601960008673ffffffffffffffffffffffffffffffffffffffff1673ffffffffffffffffffffffffffffffffffffffff168152602001908152602001600020541015610ee657600080fd5b601a60008573ffffffffffffffffffffffffffffffffffffffff1673ffffffffffffffffffffffffffffffffffffffff16815260200190815260200160002060003373ffffffffffffffffffffffffffffffffffffffff1673ffffffffffffffffffffffffffffffffffffffff16815260200190815260200160002054821115610f6f57600080fd5b610fb8601960008673ffffffffffffffffffffffffffffffffffffffff1673ffffffffffffffffffffffffffffffffffffffff16815260200190815260200160002054836124b7565b601960008673ffffffffffffffffffffffffffffffffffffffff1673ffffffffffffffffffffffffffffffffffffffff16815260200190815260200160002081905550611044601960008573ffffffffffffffffffffffffffffffffffffffff1673ffffffffffffffffffffffffffffffffffffffff168152602001908152602001600020548361249b565b601960008573ffffffffffffffffffffffffffffffffffffffff1673ffffffffffffffffffffffffffffffffffffffff1681526020019081526020016000208190555061110d601a60008673ffffffffffffffffffffffffffffffffffffffff1673ffffffffffffffffffffffffffffffffffffffff16815260200190815260200160002060003373ffffffffffffffffffffffffffffffffffffffff1673ffffffffffffffffffffffffffffffffffffffff16815260200190815260200160002054836124b7565b601a60008673ffffffffffffffffffffffffffffffffffffffff1673ffffffffffffffffffffffffffffffffffffffff16815260200190815260200160002060003373ffffffffffffffffffffffffffffffffffffffff1673ffffffffffffffffffffffffffffffffffffffff168152602001908152602001600020819055508273ffffffffffffffffffffffffffffffffffffffff168473ffffffffffffffffffffffffffffffffffffffff167fddf252ad1be2c89b69c2b068fc378daa952ba7f163c4a11628f55a4df523b3ef846040518082815260200191505060405180910390a3600190509392505050565b6000806000601960008673ffffffffffffffffffffffffffffffffffffffff1673ffffffffffffffffffffffffffffffffffffffff1681526020019081526020016000205411151561124e57600080fd5b8391503373ffffffffffffffffffffffffffffffffffffffff168273ffffffffffffffffffffffffffffffffffffffff166302d05d3f6040518163ffffffff167c0100000000000000000000000000000000000000000000000000000000028152600401602060405180830381600087803b1580156112cc57600080fd5b505af11580156112e0573d6000803e3d6000fd5b505050506040513d60208110156112f657600080fd5b810190808051906020019092919050505073ffffffffffffffffffffffffffffffffffffffff1614151561132957600080fd5b8173ffffffffffffffffffffffffffffffffffffffff166324e8b3ec846040518263ffffffff167c0100000000000000000000000000000000000000000000000000000000028152600401808260001916600019168152602001915050602060405180830381600087803b1580156113a057600080fd5b505af11580156113b4573d6000803e3d6000fd5b505050506040513d60208110156113ca57600080fd5b810190808051906020019092919050505090506000811115156113ec57600080fd5b611435601960008673ffffffffffffffffffffffffffffffffffffffff1673ffffffffffffffffffffffffffffffffffffffff16815260200190815260200160002054826124b7565b601960008673ffffffffffffffffffffffffffffffffffffffff1673ffffffffffffffffffffffffffffffffffffffff168152602001908152602001600020819055506114c1601960003373ffffffffffffffffffffffffffffffffffffffff1673ffffffffffffffffffffffffffffffffffffffff168152602001908152602001600020548261249b565b601960003373ffffffffffffffffffffffffffffffffffffffff1673ffffffffffffffffffffffffffffffffffffffff1681526020019081526020016000208190555050505050565b601281565b600a5481565b600160009054906101000a900473ffffffffffffffffffffffffffffffffffffffff1673ffffffffffffffffffffffffffffffffffffffff163373ffffffffffffffffffffffffffffffffffffffff1614156115a657600160009054906101000a900473ffffffffffffffffffffffffffffffffffffffff1673ffffffffffffffffffffffffffffffffffffffff16ff5b565b60075481565b600160009054906101000a900473ffffffffffffffffffffffffffffffffffffffff1673ffffffffffffffffffffffffffffffffffffffff163373ffffffffffffffffffffffffffffffffffffffff16141561164c576001601860006101000a81548160ff0219169083151502179055507f6512e8cd9160c851cdc355aaae292a0cca356cd2d30733a40f35aa020e72b24d60405160405180910390a15b565b600460009054906101000a900473ffffffffffffffffffffffffffffffffffffffff1673ffffffffffffffffffffffffffffffffffffffff163373ffffffffffffffffffffffffffffffffffffffff16141580156116fa5750600160009054906101000a900473ffffffffffffffffffffffffffffffffffffffff1673ffffffffffffffffffffffffffffffffffffffff163373ffffffffffffffffffffffffffffffffffffffff1614155b1561170457600080fd5b80600460006101000a81548173ffffffffffffffffffffffffffffffffffffffff021916908373ffffffffffffffffffffffffffffffffffffffff16021790555050565b600460009054906101000a900473ffffffffffffffffffffffffffffffffffffffff1673ffffffffffffffffffffffffffffffffffffffff163373ffffffffffffffffffffffffffffffffffffffff16141580156117f45750600160009054906101000a900473ffffffffffffffffffffffffffffffffffffffff1673ffffffffffffffffffffffffffffffffffffffff163373ffffffffffffffffffffffffffffffffffffffff1614155b156117fe57600080fd5b6001601c60008373ffffffffffffffffffffffffffffffffffffffff1673ffffffffffffffffffffffffffffffffffffffff16815260200190815260200160002060006101000a81548160ff0219169083151502179055508073ffffffffffffffffffffffffffffffffffffffff167feb73900b98b6a3e2b8b01708fe544760cf570d21e7fbe5225f24e48b5b2b432e60405160405180910390a250565b6000601960008373ffffffffffffffffffffffffffffffffffffffff1673ffffffffffffffffffffffffffffffffffffffff168152602001908152602001600020549050919050565b600360019054906101000a900473ffffffffffffffffffffffffffffffffffffffff1681565b6000600460009054906101000a900473ffffffffffffffffffffffffffffffffffffffff1673ffffffffffffffffffffffffffffffffffffffff163373ffffffffffffffffffffffffffffffffffffffff16141580156119b95750600160009054906101000a900473ffffffffffffffffffffffffffffffffffffffff1673ffffffffffffffffffffffffffffffffffffffff163373ffffffffffffffffffffffffffffffffffffffff1614155b156119c357600080fd5b6119cd8383611d23565b15156119d857600080fd5b92915050565b600160009054906101000a900473ffffffffffffffffffffffffffffffffffffffff1681565b6040805190810160405280600581526020017f43434f494e00000000000000000000000000000000000000000000000000000081525081565b6000600460009054906101000a900473ffffffffffffffffffffffffffffffffffffffff1673ffffffffffffffffffffffffffffffffffffffff163373ffffffffffffffffffffffffffffffffffffffff1614158015611aeb5750600160009054906101000a900473ffffffffffffffffffffffffffffffffffffffff1673ffffffffffffffffffffffffffffffffffffffff163373ffffffffffffffffffffffffffffffffffffffff1614155b15611af557600080fd5b611b3e601960008573ffffffffffffffffffffffffffffffffffffffff1673ffffffffffffffffffffffffffffffffffffffff16815260200190815260200160002054836124b7565b601960008573ffffffffffffffffffffffffffffffffffffffff1673ffffffffffffffffffffffffffffffffffffffff16815260200190815260200160002081905550611b8d600254836124b7565b60028190555060008373ffffffffffffffffffffffffffffffffffffffff167fddf252ad1be2c89b69c2b068fc378daa952ba7f163c4a11628f55a4df523b3ef846040518082815260200191505060405180910390a37fd83c63197e8e676d80ab0122beba9a9d20f3828839e9a1d6fe81d242e9cd7e6e826040518082815260200191505060405180910390a16001905092915050565b600460009054906101000a900473ffffffffffffffffffffffffffffffffffffffff1673ffffffffffffffffffffffffffffffffffffffff163373ffffffffffffffffffffffffffffffffffffffff1614158015611cd05750600160009054906101000a900473ffffffffffffffffffffffffffffffffffffffff1673ffffffffffffffffffffffffffffffffffffffff163373ffffffffffffffffffffffffffffffffffffffff1614155b15611cda57600080fd5b6000600360006101000a81548160ff0219169083151502179055507f19aad37188a1d3921e29eb3c66acf43d81975e107cb650d58cca878627955fd660405160405180910390a1565b6000600460009054906101000a900473ffffffffffffffffffffffffffffffffffffffff1673ffffffffffffffffffffffffffffffffffffffff163373ffffffffffffffffffffffffffffffffffffffff1614158015611d8f5750600360009054906101000a900460ff165b8015611de95750600160009054906101000a900473ffffffffffffffffffffffffffffffffffffffff1673ffffffffffffffffffffffffffffffffffffffff163373ffffffffffffffffffffffffffffffffffffffff1614155b15611df357600080fd5b611e3c601960003373ffffffffffffffffffffffffffffffffffffffff1673ffffffffffffffffffffffffffffffffffffffff16815260200190815260200160002054836124b7565b601960003373ffffffffffffffffffffffffffffffffffffffff1673ffffffffffffffffffffffffffffffffffffffff16815260200190815260200160002081905550611ec8601960008573ffffffffffffffffffffffffffffffffffffffff1673ffffffffffffffffffffffffffffffffffffffff168152602001908152602001600020548361249b565b601960008573ffffffffffffffffffffffffffffffffffffffff1673ffffffffffffffffffffffffffffffffffffffff168152602001908152602001600020819055508273ffffffffffffffffffffffffffffffffffffffff163373ffffffffffffffffffffffffffffffffffffffff167fddf252ad1be2c89b69c2b068fc378daa952ba7f163c4a11628f55a4df523b3ef846040518082815260200191505060405180910390a36001905092915050565b60065481565b600360009054906101000a900460ff1681565b600460009054906101000a900473ffffffffffffffffffffffffffffffffffffffff1673ffffffffffffffffffffffffffffffffffffffff163373ffffffffffffffffffffffffffffffffffffffff161415801561203f5750600160009054906101000a900473ffffffffffffffffffffffffffffffffffffffff1673ffffffffffffffffffffffffffffffffffffffff163373ffffffffffffffffffffffffffffffffffffffff1614155b1561204957600080fd5b6000601c60008373ffffffffffffffffffffffffffffffffffffffff1673ffffffffffffffffffffffffffffffffffffffff16815260200190815260200160002060006101000a81548160ff0219169083151502179055508073ffffffffffffffffffffffffffffffffffffffff167feb73900b98b6a3e2b8b01708fe544760cf570d21e7fbe5225f24e48b5b2b432e60405160405180910390a250565b600460009054906101000a900473ffffffffffffffffffffffffffffffffffffffff1681565b601c6020528060005260406000206000915054906101000a900460ff1681565b6000601a60008473ffffffffffffffffffffffffffffffffffffffff1673ffffffffffffffffffffffffffffffffffffffff16815260200190815260200160002060008373ffffffffffffffffffffffffffffffffffffffff1673ffffffffffffffffffffffffffffffffffffffff16815260200190815260200160002054905092915050565b600160009054906101000a900473ffffffffffffffffffffffffffffffffffffffff1673ffffffffffffffffffffffffffffffffffffffff163373ffffffffffffffffffffffffffffffffffffffff16141561228357600073ffffffffffffffffffffffffffffffffffffffff168173ffffffffffffffffffffffffffffffffffffffff161415156122825780600160006101000a81548173ffffffffffffffffffffffffffffffffffffffff021916908373ffffffffffffffffffffffffffffffffffffffff1602179055505b5b50565b600b5481565b60055481565b600460009054906101000a900473ffffffffffffffffffffffffffffffffffffffff1673ffffffffffffffffffffffffffffffffffffffff163373ffffffffffffffffffffffffffffffffffffffff161415801561233e5750600160009054906101000a900473ffffffffffffffffffffffffffffffffffffffff1673ffffffffffffffffffffffffffffffffffffffff163373ffffffffffffffffffffffffffffffffffffffff1614155b1561234857600080fd5b6001600360006101000a81548160ff0219169083151502179055507f0f2e5b6c72c6a4491efd919a9f9a409f324ef0708c11ee57d410c2cb06c0992b60405160405180910390a1565b6000806123ab6123a3346017546124d0565b600c54612508565b9050600d5460075401431115156123db576123d26123cb826012546124d0565b6064612508565b81019150612497565b600e546007540143111515612409576124006123f9826013546124d0565b6064612508565b81019150612497565b600f5460075401431115156124375761242e612427826014546124d0565b6064612508565b81019150612497565b60105460075401431115156124655761245c612455826015546124d0565b6064612508565b81019150612497565b60115460075401431115156124935761248a612483826016546124d0565b6064612508565b81019150612497565b8091505b5090565b600081830190508281101515156124ae57fe5b80905092915050565b60008282111515156124c557fe5b818303905092915050565b6000808314156124e35760009050612502565b81830290508183828115156124f457fe5b041415156124fe57fe5b8090505b92915050565b6000818381151561251557fe5b049050929150505600a165627a7a723058204b678a8e473e8c5f34b49086e58af4271baf4da27704e97e33afaba1b5fed67d0029",
  "source": "pragma solidity ^0.4.22;\n\nimport 'openzeppelin-solidity/contracts/math/SafeMath.sol';\nimport 'credit-coin-contracts/contracts/Agreement.sol';\n/**\n * @title ERC20 interface\n */\ncontract ERC20 {\n    uint public totalSupply;\n\n    function balanceOf(address who) constant returns (uint);\n\n    function allowance(address owner, address spender) constant returns (uint);\n\n    function transfer(address to, uint value) returns (bool ok);\n\n    function transferFrom(address from, address to, uint value) returns (bool ok);\n\n    function approve(address spender, uint value) returns (bool ok);\n\n    event Transfer(address indexed from, address indexed to, uint value);\n    event Approval(address indexed owner, address indexed spender, uint value);\n}\n\n\n/**\n * @title Ownable\n * @dev The Ownable contract has an owner address, and provides basic authorization control\n * functions, this simplifies the implementation of \"user permissions\".\n */\ncontract Ownable {\n    address public owner;\n\n    function Ownable() {\n        owner = msg.sender;\n    }\n\n    function transferOwnership(address newOwner) onlyOwner {\n        if (newOwner != address(0))\n            owner = newOwner;\n    }\n\n    function kill() {\n        if (msg.sender == owner)\n            selfdestruct(owner);\n    }\n\n    modifier onlyOwner() {\n        if (msg.sender == owner)\n            _;\n    }\n}\n\n// Token Contract\ncontract CCOIN is ERC20, Ownable {\n\n    struct Escrow {\n        address creator;\n        address brand;\n        address agreementContract;\n        uint256 reward;\n    }\n\n    // Public variables of the token\n    string public constant name = \"CCOIN\";\n    string public constant symbol = \"CCOIN\";\n    uint public constant decimals = 18;\n    uint public totalSupply = 1000000000 * 10 ** 18;\n    bool public locked;\n\n    address public multisigETH; // SafeMath.multisig contract that will receive the ETH\n    address public crowdSaleaddress; // Crowdsale address\n    uint public ethReceived; // Number of ETH received\n    uint public totalTokensSent; // Number of tokens sent to ETH contributors\n    uint public startBlock; // Crowdsale start block\n    uint public endBlock; // Crowdsale end block\n    uint public maxCap; // Maximum number of token to sell\n    uint public minCap; // Minimum number of ETH to raise\n    uint public minContributionETH; // Minimum amount to invest\n    uint public tokenPriceWei;\n\n    uint firstPeriod;\n    uint secondPeriod;\n    uint thirdPeriod;\n    uint fourthPeriod;\n    uint fifthPeriod;\n    uint firstBonus;\n    uint secondBonus;\n    uint thirdBonus;\n    uint fourthBonus;\n    uint fifthBonus;\n    uint public multiplier;\n\n    bool public stopInEmergency = false;\n\n    mapping(address => uint) balances;\n    mapping(address => mapping(address => uint)) allowed;\n    mapping(address => Escrow) escrowAgreements;\n    // Whitelist\n    mapping(address => bool) public whitelisted;\n\n    event Whitelist(address indexed participant);\n    event Locked();\n    event Unlocked();\n    event StoppedCrowdsale();\n    event RestartedCrowdsale();\n    event Burned(uint256 value);\n\n    // Lock transfer during the ICO\n    modifier onlyUnlocked() {\n        if (msg.sender != crowdSaleaddress && locked && msg.sender != owner)\n            revert();\n        _;\n    }\n\n    // @notice to protect short address attack\n    modifier onlyPayloadSize(uint numWords){\n        assert(msg.data.length >= numWords * 32 + 4);\n        _;\n    }\n\n    modifier onlyAuthorized() {\n        if (msg.sender != crowdSaleaddress && msg.sender != owner)\n            revert();\n        _;\n    }\n\n    // The Token constructor\n    constructor() public {\n        locked = true;\n        multiplier = 10 ** 18;\n\n        multisigETH = msg.sender;\n        minContributionETH = 1;\n        startBlock = 0;\n        endBlock = 0;\n        maxCap = 1000 * multiplier;\n        tokenPriceWei = SafeMath.div(1, 1400);\n        minCap = 100 * multiplier;\n        totalTokensSent = 0;\n        firstPeriod = 100;\n        secondPeriod = 200;\n        thirdPeriod = 300;\n        fourthPeriod = 400;\n        fifthPeriod = 500;\n\n        firstBonus = 120;\n        secondBonus = 115;\n        thirdBonus = 110;\n        fourthBonus = SafeMath.div(1075, 10);\n        fifthBonus = 105;\n        balances[multisigETH] = totalSupply;\n    }\n\n    function resetCrowdSaleaddress(address _newCrowdSaleaddress) public onlyAuthorized() {\n        crowdSaleaddress = _newCrowdSaleaddress;\n    }\n\n    function unlock() public onlyAuthorized {\n        locked = false;\n        emit Unlocked();\n    }\n\n    function lock() public onlyAuthorized {\n        locked = true;\n        emit Locked();\n    }\n\n    function burn(address _member, uint256 _value) public onlyAuthorized returns (bool) {\n        balances[_member] = SafeMath.sub(balances[_member], _value);\n        totalSupply = SafeMath.sub(totalSupply, _value);\n        emit Transfer(_member, 0x0, _value);\n        emit Burned(_value);\n        return true;\n    }\n\n    function Airdrop(address _to, uint256 _tokens) external onlyAuthorized returns(bool) {\n        require(transfer(_to, _tokens));\n    } \n\n    function transfer(address _to, uint _value) public onlyUnlocked returns (bool) {\n        balances[msg.sender] = SafeMath.sub(balances[msg.sender], _value);\n        balances[_to] = SafeMath.add(balances[_to], _value);\n        emit Transfer(msg.sender, _to, _value);\n        return true;\n    }\n\n    /* A contract attempts to get the coins */\n    function transferFrom(address _from, address _to, uint256 _value) public onlyUnlocked returns (bool success) {\n        if (balances[_from] < _value)\n            revert();\n        // Check if the sender has enough\n        if (_value > allowed[_from][msg.sender])\n            revert();\n        // Check allowance\n        balances[_from] = SafeMath.sub(balances[_from], _value);\n        // SafeMath.subtract from the sender\n        balances[_to] = SafeMath.add(balances[_to], _value);\n        // SafeMath.add the same to the recipient\n        allowed[_from][msg.sender] = SafeMath.sub(allowed[_from][msg.sender], _value);\n        emit Transfer(_from, _to, _value);\n        return true;\n    }\n\n    function balanceOf(address _owner) public constant returns (uint balance) {\n        return balances[_owner];\n    }\n\n    function approve(address _spender, uint _value) public returns (bool) {\n        allowed[msg.sender][_spender] = _value;\n        emit Approval(msg.sender, _spender, _value);\n        return true;\n    }\n\n    function allowance(address _owner, address _spender) public constant returns (uint remaining) {\n        return allowed[_owner][_spender];\n    }\n\n    function withdrawFromEscrow(address _agreementAddr, bytes32 _id) {\n        require(balances[_agreementAddr] > 0);\n        Agreement agreement = Agreement(_agreementAddr);\n        require(agreement.creator() == msg.sender);\n        uint256 reward = agreement.getClaimableRewards(_id);\n        require(reward > 0);\n        balances[_agreementAddr] = SafeMath.sub(balances[_agreementAddr], reward);\n        balances[msg.sender] = SafeMath.add(balances[msg.sender], reward);\n    }\n\n    function WhitelistParticipant(address participant) external onlyAuthorized {\n        whitelisted[participant] = true;\n        emit Whitelist(participant);\n    }\n\n    function BlacklistParticipant(address participant) external onlyAuthorized {\n        whitelisted[participant] = false;\n        emit Whitelist(participant);\n    }\n\n    // {fallback function}\n    // @notice It will call internal function which handles allocation of Ether and calculates tokens.\n    function() public payable onlyPayloadSize(2) {\n        contribute(msg.sender);\n    }\n\n    // @notice It will be called by fallback function whenever ether is sent to it\n    // @param  _backer {address} address of beneficiary\n    // @return res {bool} true if transaction was successful\n    function contribute(address _backer) internal returns (bool res) {\n        // stop when required minimum is not sent\n        if (msg.value < minContributionETH)\n            revert();\n\n        // calculate number of tokens\n        uint tokensToSend = calculateNoOfTokensToSend();\n\n        // Ensure that max cap hasn't been reached\n        if (SafeMath.add(totalTokensSent, tokensToSend) > maxCap)\n            revert();\n\n        // Transfer tokens to contributor\n        if (!transfer(_backer, tokensToSend))\n            revert();\n\n        ethReceived = SafeMath.add(ethReceived, msg.value);\n        totalTokensSent = SafeMath.add(totalTokensSent, tokensToSend);\n\n        return true;\n    }\n\n    // @notice This function will return number of tokens based on time intervals in the campaign\n    function calculateNoOfTokensToSend() constant internal returns (uint) {\n        uint tokenAmount = SafeMath.div(SafeMath.mul(msg.value, multiplier), tokenPriceWei);\n        if (block.number <= startBlock + firstPeriod)\n            return tokenAmount + SafeMath.div(SafeMath.mul(tokenAmount, firstBonus), 100);\n        else if (block.number <= startBlock + secondPeriod)\n            return tokenAmount + SafeMath.div(SafeMath.mul(tokenAmount, secondBonus), 100);\n        else if (block.number <= startBlock + thirdPeriod)\n            return tokenAmount + SafeMath.div(SafeMath.mul(tokenAmount, thirdBonus), 100);\n        else if (block.number <= startBlock + fourthPeriod)\n            return tokenAmount + SafeMath.div(SafeMath.mul(tokenAmount, fourthBonus), 100);\n        else if (block.number <= startBlock + fifthPeriod)\n            return tokenAmount + SafeMath.div(SafeMath.mul(tokenAmount, fifthBonus), 100);\n        else\n            return tokenAmount;\n    }\n\n    function stopCrowdsale() external onlyOwner{\n        stopInEmergency = true;\n        emit StoppedCrowdsale();\n    }\n\n    function restartCrowdsale() external onlyOwner{\n        stopInEmergency = false;\n        emit RestartedCrowdsale();\n    }\n\n}\n",
  "sourcePath": "/Users/kc1116/Desktop/credit-coin/tokencontract/contracts/CCOIN.sol",
  "compiler": {
    "name": "solc",
    "version": "0.4.24+commit.e67f0147.Emscripten.clang"
  },
  "schemaVersion": "2.0.0",
  "updatedAt": "2018-06-20T06:15:32.333Z"
}