{
  "contractName": "CCOIN",
  "abi": [
    {
      "constant": true,
      "inputs": [],
      "name": "tokenPriceWei",
      "outputs": [
        {
          "name": "",
          "type": "uint256"
        }
      ],
      "payable": false,
      "stateMutability": "view",
      "type": "function"
    },
    {
      "constant": true,
      "inputs": [],
      "name": "name",
      "outputs": [
        {
          "name": "",
          "type": "string"
        }
      ],
      "payable": false,
      "stateMutability": "view",
      "type": "function"
    },
    {
      "constant": true,
      "inputs": [],
      "name": "endBlock",
      "outputs": [
        {
          "name": "",
          "type": "uint256"
        }
      ],
      "payable": false,
      "stateMutability": "view",
      "type": "function"
    },
    {
      "constant": true,
      "inputs": [],
      "name": "totalSupply",
      "outputs": [
        {
          "name": "",
          "type": "uint256"
        }
      ],
      "payable": false,
      "stateMutability": "view",
      "type": "function"
    },
    {
      "constant": true,
      "inputs": [],
      "name": "multiplier",
      "outputs": [
        {
          "name": "",
          "type": "uint256"
        }
      ],
      "payable": false,
      "stateMutability": "view",
      "type": "function"
    },
    {
      "constant": true,
      "inputs": [],
      "name": "stopInEmergency",
      "outputs": [
        {
          "name": "",
          "type": "bool"
        }
      ],
      "payable": false,
      "stateMutability": "view",
      "type": "function"
    },
    {
      "constant": true,
      "inputs": [],
      "name": "maxCap",
      "outputs": [
        {
          "name": "",
          "type": "uint256"
        }
      ],
      "payable": false,
      "stateMutability": "view",
      "type": "function"
    },
    {
      "constant": true,
      "inputs": [],
      "name": "decimals",
      "outputs": [
        {
          "name": "",
          "type": "uint256"
        }
      ],
      "payable": false,
      "stateMutability": "view",
      "type": "function"
    },
    {
      "constant": true,
      "inputs": [],
      "name": "minCap",
      "outputs": [
        {
          "name": "",
          "type": "uint256"
        }
      ],
      "payable": false,
      "stateMutability": "view",
      "type": "function"
    },
    {
      "constant": false,
      "inputs": [],
      "name": "kill",
      "outputs": [],
      "payable": false,
      "stateMutability": "nonpayable",
      "type": "function"
    },
    {
      "constant": true,
      "inputs": [],
      "name": "startBlock",
      "outputs": [
        {
          "name": "",
          "type": "uint256"
        }
      ],
      "payable": false,
      "stateMutability": "view",
      "type": "function"
    },
    {
      "constant": true,
      "inputs": [],
      "name": "multisigETH",
      "outputs": [
        {
          "name": "",
          "type": "address"
        }
      ],
      "payable": false,
      "stateMutability": "view",
      "type": "function"
    },
    {
      "constant": true,
      "inputs": [],
      "name": "owner",
      "outputs": [
        {
          "name": "",
          "type": "address"
        }
      ],
      "payable": false,
      "stateMutability": "view",
      "type": "function"
    },
    {
      "constant": true,
      "inputs": [],
      "name": "symbol",
      "outputs": [
        {
          "name": "",
          "type": "string"
        }
      ],
      "payable": false,
      "stateMutability": "view",
      "type": "function"
    },
    {
      "constant": true,
      "inputs": [],
      "name": "totalTokensSent",
      "outputs": [
        {
          "name": "",
          "type": "uint256"
        }
      ],
      "payable": false,
      "stateMutability": "view",
      "type": "function"
    },
    {
      "constant": true,
      "inputs": [],
      "name": "locked",
      "outputs": [
        {
          "name": "",
          "type": "bool"
        }
      ],
      "payable": false,
      "stateMutability": "view",
      "type": "function"
    },
    {
      "constant": true,
      "inputs": [],
      "name": "crowdSaleaddress",
      "outputs": [
        {
          "name": "",
          "type": "address"
        }
      ],
      "payable": false,
      "stateMutability": "view",
      "type": "function"
    },
    {
      "constant": true,
      "inputs": [
        {
          "name": "",
          "type": "address"
        }
      ],
      "name": "whitelisted",
      "outputs": [
        {
          "name": "",
          "type": "bool"
        }
      ],
      "payable": false,
      "stateMutability": "view",
      "type": "function"
    },
    {
      "constant": false,
      "inputs": [
        {
          "name": "newOwner",
          "type": "address"
        }
      ],
      "name": "transferOwnership",
      "outputs": [],
      "payable": false,
      "stateMutability": "nonpayable",
      "type": "function"
    },
    {
      "constant": true,
      "inputs": [],
      "name": "minContributionETH",
      "outputs": [
        {
          "name": "",
          "type": "uint256"
        }
      ],
      "payable": false,
      "stateMutability": "view",
      "type": "function"
    },
    {
      "constant": true,
      "inputs": [],
      "name": "ethReceived",
      "outputs": [
        {
          "name": "",
          "type": "uint256"
        }
      ],
      "payable": false,
      "stateMutability": "view",
      "type": "function"
    },
    {
      "inputs": [],
      "payable": false,
      "stateMutability": "nonpayable",
      "type": "constructor"
    },
    {
      "payable": true,
      "stateMutability": "payable",
      "type": "fallback"
    },
    {
      "anonymous": false,
      "inputs": [
        {
          "indexed": true,
          "name": "participant",
          "type": "address"
        }
      ],
      "name": "Whitelist",
      "type": "event"
    },
    {
      "anonymous": false,
      "inputs": [],
      "name": "Locked",
      "type": "event"
    },
    {
      "anonymous": false,
      "inputs": [],
      "name": "Unlocked",
      "type": "event"
    },
    {
      "anonymous": false,
      "inputs": [],
      "name": "StoppedCrowdsale",
      "type": "event"
    },
    {
      "anonymous": false,
      "inputs": [],
      "name": "RestartedCrowdsale",
      "type": "event"
    },
    {
      "anonymous": false,
      "inputs": [
        {
          "indexed": false,
          "name": "value",
          "type": "uint256"
        }
      ],
      "name": "Burned",
      "type": "event"
    },
    {
      "anonymous": false,
      "inputs": [
        {
          "indexed": true,
          "name": "from",
          "type": "address"
        },
        {
          "indexed": true,
          "name": "to",
          "type": "address"
        },
        {
          "indexed": false,
          "name": "value",
          "type": "uint256"
        }
      ],
      "name": "Transfer",
      "type": "event"
    },
    {
      "anonymous": false,
      "inputs": [
        {
          "indexed": true,
          "name": "owner",
          "type": "address"
        },
        {
          "indexed": true,
          "name": "spender",
          "type": "address"
        },
        {
          "indexed": false,
          "name": "value",
          "type": "uint256"
        }
      ],
      "name": "Approval",
      "type": "event"
    },
    {
      "constant": false,
      "inputs": [
        {
          "name": "_newCrowdSaleaddress",
          "type": "address"
        }
      ],
      "name": "resetCrowdSaleaddress",
      "outputs": [],
      "payable": false,
      "stateMutability": "nonpayable",
      "type": "function"
    },
    {
      "constant": false,
      "inputs": [],
      "name": "unlock",
      "outputs": [],
      "payable": false,
      "stateMutability": "nonpayable",
      "type": "function"
    },
    {
      "constant": false,
      "inputs": [],
      "name": "lock",
      "outputs": [],
      "payable": false,
      "stateMutability": "nonpayable",
      "type": "function"
    },
    {
      "constant": false,
      "inputs": [
        {
          "name": "_member",
          "type": "address"
        },
        {
          "name": "_value",
          "type": "uint256"
        }
      ],
      "name": "burn",
      "outputs": [
        {
          "name": "",
          "type": "bool"
        }
      ],
      "payable": false,
      "stateMutability": "nonpayable",
      "type": "function"
    },
    {
      "constant": false,
      "inputs": [
        {
          "name": "_to",
          "type": "address"
        },
        {
          "name": "_tokens",
          "type": "uint256"
        }
      ],
      "name": "Airdrop",
      "outputs": [
        {
          "name": "",
          "type": "bool"
        }
      ],
      "payable": false,
      "stateMutability": "nonpayable",
      "type": "function"
    },
    {
      "constant": false,
      "inputs": [
        {
          "name": "_to",
          "type": "address"
        },
        {
          "name": "_value",
          "type": "uint256"
        }
      ],
      "name": "transfer",
      "outputs": [
        {
          "name": "",
          "type": "bool"
        }
      ],
      "payable": false,
      "stateMutability": "nonpayable",
      "type": "function"
    },
    {
      "constant": false,
      "inputs": [
        {
          "name": "_from",
          "type": "address"
        },
        {
          "name": "_to",
          "type": "address"
        },
        {
          "name": "_value",
          "type": "uint256"
        }
      ],
      "name": "transferFrom",
      "outputs": [
        {
          "name": "success",
          "type": "bool"
        }
      ],
      "payable": false,
      "stateMutability": "nonpayable",
      "type": "function"
    },
    {
      "constant": true,
      "inputs": [
        {
          "name": "_owner",
          "type": "address"
        }
      ],
      "name": "balanceOf",
      "outputs": [
        {
          "name": "balance",
          "type": "uint256"
        }
      ],
      "payable": false,
      "stateMutability": "view",
      "type": "function"
    },
    {
      "constant": false,
      "inputs": [
        {
          "name": "_spender",
          "type": "address"
        },
        {
          "name": "_value",
          "type": "uint256"
        }
      ],
      "name": "approve",
      "outputs": [
        {
          "name": "",
          "type": "bool"
        }
      ],
      "payable": false,
      "stateMutability": "nonpayable",
      "type": "function"
    },
    {
      "constant": true,
      "inputs": [
        {
          "name": "_owner",
          "type": "address"
        },
        {
          "name": "_spender",
          "type": "address"
        }
      ],
      "name": "allowance",
      "outputs": [
        {
          "name": "remaining",
          "type": "uint256"
        }
      ],
      "payable": false,
      "stateMutability": "view",
      "type": "function"
    },
    {
      "constant": false,
      "inputs": [
        {
          "name": "participant",
          "type": "address"
        }
      ],
      "name": "WhitelistParticipant",
      "outputs": [],
      "payable": false,
      "stateMutability": "nonpayable",
      "type": "function"
    },
    {
      "constant": false,
      "inputs": [
        {
          "name": "participant",
          "type": "address"
        }
      ],
      "name": "BlacklistParticipant",
      "outputs": [],
      "payable": false,
      "stateMutability": "nonpayable",
      "type": "function"
    },
    {
      "constant": false,
      "inputs": [],
      "name": "stopCrowdsale",
      "outputs": [],
      "payable": false,
      "stateMutability": "nonpayable",
      "type": "function"
    },
    {
      "constant": false,
      "inputs": [],
      "name": "restartCrowdsale",
      "outputs": [],
      "payable": false,
      "stateMutability": "nonpayable",
      "type": "function"
    }
  ],
  "bytecode": "0x60806040526b033b2e3c9fd0803ce80000006002556000601860006101000a81548160ff0219169083151502179055503480156200003c57600080fd5b5033600160006101000a81548173ffffffffffffffffffffffffffffffffffffffff021916908373ffffffffffffffffffffffffffffffffffffffff1602179055506001600360006101000a81548160ff021916908315150217905550670de0b6b3a764000060178190555033600360016101000a81548173ffffffffffffffffffffffffffffffffffffffff021916908373ffffffffffffffffffffffffffffffffffffffff1602179055506001600b81905550600060078190555060006008819055506017546103e8026009819055506200013160016105786200022d640100000000026200219f176401000000009004565b600c81905550601754606402600a8190555060006006819055506064600d8190555060c8600e8190555061012c600f819055506101906010819055506101f460118190555060786012819055506073601381905550606e601481905550620001b1610433600a6200022d640100000000026200219f176401000000009004565b601581905550606960168190555060025460196000600360019054906101000a900473ffffffffffffffffffffffffffffffffffffffff1673ffffffffffffffffffffffffffffffffffffffff1673ffffffffffffffffffffffffffffffffffffffff1681526020019081526020016000208190555062000244565b600081838115156200023b57fe5b04905092915050565b6121e180620002546000396000f3006080604052600436106101b7576000357c0100000000000000000000000000000000000000000000000000000000900463ffffffff16806305d0f15b146101dc57806306fdde0314610207578063083c632314610297578063095ea7b3146102c2578063144136a11461032757806318160ddd1461033e5780631b3ed7221461036957806322763ae11461039457806323548b8b146103c357806323b872dd146103ee578063313ce567146104735780633fa615b01461049e57806341c0e1b5146104c957806348cd4cb1146104e0578063507d59541461050b5780635b2ca64114610522578063630babac1461056557806370a08231146105a8578063823914d9146105ff5780638c32c568146106565780638da5cb5b146106bb57806395d89b41146107125780639dc29fac146107a2578063a69df4b514610807578063a9059cbb1461081e578063ac1559d214610883578063cf309012146108ae578063d04d2ca3146108dd578063d725a9f014610920578063d936547e14610977578063dd62ed3e146109d2578063f2fde38b14610a49578063f566381914610a8c578063f5f2de3414610ab7578063f83d08ba14610ae2575b6002600460208202016000369050101515156101cf57fe5b6101d833610af9565b5050005b3480156101e857600080fd5b506101f1610b72565b6040518082815260200191505060405180910390f35b34801561021357600080fd5b5061021c610b78565b6040518080602001828103825283818151815260200191508051906020019080838360005b8381101561025c578082015181840152602081019050610241565b50505050905090810190601f1680156102895780820380516001836020036101000a031916815260200191505b509250505060405180910390f35b3480156102a357600080fd5b506102ac610bb1565b6040518082815260200191505060405180910390f35b3480156102ce57600080fd5b5061030d600480360381019080803573ffffffffffffffffffffffffffffffffffffffff16906020019092919080359060200190929190505050610bb7565b604051808215151515815260200191505060405180910390f35b34801561033357600080fd5b5061033c610ca9565b005b34801561034a57600080fd5b50610353610d49565b6040518082815260200191505060405180910390f35b34801561037557600080fd5b5061037e610d4f565b6040518082815260200191505060405180910390f35b3480156103a057600080fd5b506103a9610d55565b604051808215151515815260200191505060405180910390f35b3480156103cf57600080fd5b506103d8610d68565b6040518082815260200191505060405180910390f35b3480156103fa57600080fd5b50610459600480360381019080803573ffffffffffffffffffffffffffffffffffffffff169060200190929190803573ffffffffffffffffffffffffffffffffffffffff16906020019092919080359060200190929190505050610d6e565b604051808215151515815260200191505060405180910390f35b34801561047f57600080fd5b506104886111a1565b6040518082815260200191505060405180910390f35b3480156104aa57600080fd5b506104b36111a6565b6040518082815260200191505060405180910390f35b3480156104d557600080fd5b506104de6111ac565b005b3480156104ec57600080fd5b506104f561123f565b6040518082815260200191505060405180910390f35b34801561051757600080fd5b50610520611245565b005b34801561052e57600080fd5b50610563600480360381019080803573ffffffffffffffffffffffffffffffffffffffff1690602001909291905050506112e5565b005b34801561057157600080fd5b506105a6600480360381019080803573ffffffffffffffffffffffffffffffffffffffff1690602001909291905050506113df565b005b3480156105b457600080fd5b506105e9600480360381019080803573ffffffffffffffffffffffffffffffffffffffff169060200190929190505050611533565b6040518082815260200191505060405180910390f35b34801561060b57600080fd5b5061061461157c565b604051808273ffffffffffffffffffffffffffffffffffffffff1673ffffffffffffffffffffffffffffffffffffffff16815260200191505060405180910390f35b34801561066257600080fd5b506106a1600480360381019080803573ffffffffffffffffffffffffffffffffffffffff169060200190929190803590602001909291905050506115a2565b604051808215151515815260200191505060405180910390f35b3480156106c757600080fd5b506106d0611675565b604051808273ffffffffffffffffffffffffffffffffffffffff1673ffffffffffffffffffffffffffffffffffffffff16815260200191505060405180910390f35b34801561071e57600080fd5b5061072761169b565b6040518080602001828103825283818151815260200191508051906020019080838360005b8381101561076757808201518184015260208101905061074c565b50505050905090810190601f1680156107945780820380516001836020036101000a031916815260200191505b509250505060405180910390f35b3480156107ae57600080fd5b506107ed600480360381019080803573ffffffffffffffffffffffffffffffffffffffff169060200190929190803590602001909291905050506116d4565b604051808215151515815260200191505060405180910390f35b34801561081357600080fd5b5061081c6118bb565b005b34801561082a57600080fd5b50610869600480360381019080803573ffffffffffffffffffffffffffffffffffffffff169060200190929190803590602001909291905050506119ba565b604051808215151515815260200191505060405180910390f35b34801561088f57600080fd5b50610898611c11565b6040518082815260200191505060405180910390f35b3480156108ba57600080fd5b506108c3611c17565b604051808215151515815260200191505060405180910390f35b3480156108e957600080fd5b5061091e600480360381019080803573ffffffffffffffffffffffffffffffffffffffff169060200190929190505050611c2a565b005b34801561092c57600080fd5b50610935611d7e565b604051808273ffffffffffffffffffffffffffffffffffffffff1673ffffffffffffffffffffffffffffffffffffffff16815260200191505060405180910390f35b34801561098357600080fd5b506109b8600480360381019080803573ffffffffffffffffffffffffffffffffffffffff169060200190929190505050611da4565b604051808215151515815260200191505060405180910390f35b3480156109de57600080fd5b50610a33600480360381019080803573ffffffffffffffffffffffffffffffffffffffff169060200190929190803573ffffffffffffffffffffffffffffffffffffffff169060200190929190505050611dc4565b6040518082815260200191505060405180910390f35b348015610a5557600080fd5b50610a8a600480360381019080803573ffffffffffffffffffffffffffffffffffffffff169060200190929190505050611e4b565b005b348015610a9857600080fd5b50610aa1611f1d565b6040518082815260200191505060405180910390f35b348015610ac357600080fd5b50610acc611f23565b6040518082815260200191505060405180910390f35b348015610aee57600080fd5b50610af7611f29565b005b600080600b54341015610b0b57600080fd5b610b13612028565b9050600954610b2460065483612132565b1115610b2f57600080fd5b610b3983826119ba565b1515610b4457600080fd5b610b5060055434612132565b600581905550610b6260065482612132565b6006819055506001915050919050565b600c5481565b6040805190810160405280600581526020017f43434f494e00000000000000000000000000000000000000000000000000000081525081565b60085481565b600081601a60003373ffffffffffffffffffffffffffffffffffffffff1673ffffffffffffffffffffffffffffffffffffffff16815260200190815260200160002060008573ffffffffffffffffffffffffffffffffffffffff1673ffffffffffffffffffffffffffffffffffffffff168152602001908152602001600020819055508273ffffffffffffffffffffffffffffffffffffffff163373ffffffffffffffffffffffffffffffffffffffff167f8c5be1e5ebec7d5bd14f71427d1e84f3dd0314c0f7b2291e5b200ac8c7c3b925846040518082815260200191505060405180910390a36001905092915050565b600160009054906101000a900473ffffffffffffffffffffffffffffffffffffffff1673ffffffffffffffffffffffffffffffffffffffff163373ffffffffffffffffffffffffffffffffffffffff161415610d47576000601860006101000a81548160ff0219169083151502179055507f98bb8d6a8da1f2c9a7bbd8b2f26b35214f905d624d1609f59959bbe8e280bbc560405160405180910390a15b565b60025481565b60175481565b601860009054906101000a900460ff1681565b60095481565b6000600460009054906101000a900473ffffffffffffffffffffffffffffffffffffffff1673ffffffffffffffffffffffffffffffffffffffff163373ffffffffffffffffffffffffffffffffffffffff1614158015610dda5750600360009054906101000a900460ff165b8015610e345750600160009054906101000a900473ffffffffffffffffffffffffffffffffffffffff1673ffffffffffffffffffffffffffffffffffffffff163373ffffffffffffffffffffffffffffffffffffffff1614155b15610e3e57600080fd5b81601960008673ffffffffffffffffffffffffffffffffffffffff1673ffffffffffffffffffffffffffffffffffffffff168152602001908152602001600020541015610e8a57600080fd5b601a60008573ffffffffffffffffffffffffffffffffffffffff1673ffffffffffffffffffffffffffffffffffffffff16815260200190815260200160002060003373ffffffffffffffffffffffffffffffffffffffff1673ffffffffffffffffffffffffffffffffffffffff16815260200190815260200160002054821115610f1357600080fd5b610f5c601960008673ffffffffffffffffffffffffffffffffffffffff1673ffffffffffffffffffffffffffffffffffffffff168152602001908152602001600020548361214e565b601960008673ffffffffffffffffffffffffffffffffffffffff1673ffffffffffffffffffffffffffffffffffffffff16815260200190815260200160002081905550610fe8601960008573ffffffffffffffffffffffffffffffffffffffff1673ffffffffffffffffffffffffffffffffffffffff1681526020019081526020016000205483612132565b601960008573ffffffffffffffffffffffffffffffffffffffff1673ffffffffffffffffffffffffffffffffffffffff168152602001908152602001600020819055506110b1601a60008673ffffffffffffffffffffffffffffffffffffffff1673ffffffffffffffffffffffffffffffffffffffff16815260200190815260200160002060003373ffffffffffffffffffffffffffffffffffffffff1673ffffffffffffffffffffffffffffffffffffffff168152602001908152602001600020548361214e565b601a60008673ffffffffffffffffffffffffffffffffffffffff1673ffffffffffffffffffffffffffffffffffffffff16815260200190815260200160002060003373ffffffffffffffffffffffffffffffffffffffff1673ffffffffffffffffffffffffffffffffffffffff168152602001908152602001600020819055508273ffffffffffffffffffffffffffffffffffffffff168473ffffffffffffffffffffffffffffffffffffffff167fddf252ad1be2c89b69c2b068fc378daa952ba7f163c4a11628f55a4df523b3ef846040518082815260200191505060405180910390a3600190509392505050565b601281565b600a5481565b600160009054906101000a900473ffffffffffffffffffffffffffffffffffffffff1673ffffffffffffffffffffffffffffffffffffffff163373ffffffffffffffffffffffffffffffffffffffff16141561123d57600160009054906101000a900473ffffffffffffffffffffffffffffffffffffffff1673ffffffffffffffffffffffffffffffffffffffff16ff5b565b60075481565b600160009054906101000a900473ffffffffffffffffffffffffffffffffffffffff1673ffffffffffffffffffffffffffffffffffffffff163373ffffffffffffffffffffffffffffffffffffffff1614156112e3576001601860006101000a81548160ff0219169083151502179055507f6512e8cd9160c851cdc355aaae292a0cca356cd2d30733a40f35aa020e72b24d60405160405180910390a15b565b600460009054906101000a900473ffffffffffffffffffffffffffffffffffffffff1673ffffffffffffffffffffffffffffffffffffffff163373ffffffffffffffffffffffffffffffffffffffff16141580156113915750600160009054906101000a900473ffffffffffffffffffffffffffffffffffffffff1673ffffffffffffffffffffffffffffffffffffffff163373ffffffffffffffffffffffffffffffffffffffff1614155b1561139b57600080fd5b80600460006101000a81548173ffffffffffffffffffffffffffffffffffffffff021916908373ffffffffffffffffffffffffffffffffffffffff16021790555050565b600460009054906101000a900473ffffffffffffffffffffffffffffffffffffffff1673ffffffffffffffffffffffffffffffffffffffff163373ffffffffffffffffffffffffffffffffffffffff161415801561148b5750600160009054906101000a900473ffffffffffffffffffffffffffffffffffffffff1673ffffffffffffffffffffffffffffffffffffffff163373ffffffffffffffffffffffffffffffffffffffff1614155b1561149557600080fd5b6001601b60008373ffffffffffffffffffffffffffffffffffffffff1673ffffffffffffffffffffffffffffffffffffffff16815260200190815260200160002060006101000a81548160ff0219169083151502179055508073ffffffffffffffffffffffffffffffffffffffff167feb73900b98b6a3e2b8b01708fe544760cf570d21e7fbe5225f24e48b5b2b432e60405160405180910390a250565b6000601960008373ffffffffffffffffffffffffffffffffffffffff1673ffffffffffffffffffffffffffffffffffffffff168152602001908152602001600020549050919050565b600360019054906101000a900473ffffffffffffffffffffffffffffffffffffffff1681565b6000600460009054906101000a900473ffffffffffffffffffffffffffffffffffffffff1673ffffffffffffffffffffffffffffffffffffffff163373ffffffffffffffffffffffffffffffffffffffff16141580156116505750600160009054906101000a900473ffffffffffffffffffffffffffffffffffffffff1673ffffffffffffffffffffffffffffffffffffffff163373ffffffffffffffffffffffffffffffffffffffff1614155b1561165a57600080fd5b61166483836119ba565b151561166f57600080fd5b92915050565b600160009054906101000a900473ffffffffffffffffffffffffffffffffffffffff1681565b6040805190810160405280600581526020017f43434f494e00000000000000000000000000000000000000000000000000000081525081565b6000600460009054906101000a900473ffffffffffffffffffffffffffffffffffffffff1673ffffffffffffffffffffffffffffffffffffffff163373ffffffffffffffffffffffffffffffffffffffff16141580156117825750600160009054906101000a900473ffffffffffffffffffffffffffffffffffffffff1673ffffffffffffffffffffffffffffffffffffffff163373ffffffffffffffffffffffffffffffffffffffff1614155b1561178c57600080fd5b6117d5601960008573ffffffffffffffffffffffffffffffffffffffff1673ffffffffffffffffffffffffffffffffffffffff168152602001908152602001600020548361214e565b601960008573ffffffffffffffffffffffffffffffffffffffff1673ffffffffffffffffffffffffffffffffffffffff168152602001908152602001600020819055506118246002548361214e565b60028190555060008373ffffffffffffffffffffffffffffffffffffffff167fddf252ad1be2c89b69c2b068fc378daa952ba7f163c4a11628f55a4df523b3ef846040518082815260200191505060405180910390a37fd83c63197e8e676d80ab0122beba9a9d20f3828839e9a1d6fe81d242e9cd7e6e826040518082815260200191505060405180910390a16001905092915050565b600460009054906101000a900473ffffffffffffffffffffffffffffffffffffffff1673ffffffffffffffffffffffffffffffffffffffff163373ffffffffffffffffffffffffffffffffffffffff16141580156119675750600160009054906101000a900473ffffffffffffffffffffffffffffffffffffffff1673ffffffffffffffffffffffffffffffffffffffff163373ffffffffffffffffffffffffffffffffffffffff1614155b1561197157600080fd5b6000600360006101000a81548160ff0219169083151502179055507f19aad37188a1d3921e29eb3c66acf43d81975e107cb650d58cca878627955fd660405160405180910390a1565b6000600460009054906101000a900473ffffffffffffffffffffffffffffffffffffffff1673ffffffffffffffffffffffffffffffffffffffff163373ffffffffffffffffffffffffffffffffffffffff1614158015611a265750600360009054906101000a900460ff165b8015611a805750600160009054906101000a900473ffffffffffffffffffffffffffffffffffffffff1673ffffffffffffffffffffffffffffffffffffffff163373ffffffffffffffffffffffffffffffffffffffff1614155b15611a8a57600080fd5b611ad3601960003373ffffffffffffffffffffffffffffffffffffffff1673ffffffffffffffffffffffffffffffffffffffff168152602001908152602001600020548361214e565b601960003373ffffffffffffffffffffffffffffffffffffffff1673ffffffffffffffffffffffffffffffffffffffff16815260200190815260200160002081905550611b5f601960008573ffffffffffffffffffffffffffffffffffffffff1673ffffffffffffffffffffffffffffffffffffffff1681526020019081526020016000205483612132565b601960008573ffffffffffffffffffffffffffffffffffffffff1673ffffffffffffffffffffffffffffffffffffffff168152602001908152602001600020819055508273ffffffffffffffffffffffffffffffffffffffff163373ffffffffffffffffffffffffffffffffffffffff167fddf252ad1be2c89b69c2b068fc378daa952ba7f163c4a11628f55a4df523b3ef846040518082815260200191505060405180910390a36001905092915050565b60065481565b600360009054906101000a900460ff1681565b600460009054906101000a900473ffffffffffffffffffffffffffffffffffffffff1673ffffffffffffffffffffffffffffffffffffffff163373ffffffffffffffffffffffffffffffffffffffff1614158015611cd65750600160009054906101000a900473ffffffffffffffffffffffffffffffffffffffff1673ffffffffffffffffffffffffffffffffffffffff163373ffffffffffffffffffffffffffffffffffffffff1614155b15611ce057600080fd5b6000601b60008373ffffffffffffffffffffffffffffffffffffffff1673ffffffffffffffffffffffffffffffffffffffff16815260200190815260200160002060006101000a81548160ff0219169083151502179055508073ffffffffffffffffffffffffffffffffffffffff167feb73900b98b6a3e2b8b01708fe544760cf570d21e7fbe5225f24e48b5b2b432e60405160405180910390a250565b600460009054906101000a900473ffffffffffffffffffffffffffffffffffffffff1681565b601b6020528060005260406000206000915054906101000a900460ff1681565b6000601a60008473ffffffffffffffffffffffffffffffffffffffff1673ffffffffffffffffffffffffffffffffffffffff16815260200190815260200160002060008373ffffffffffffffffffffffffffffffffffffffff1673ffffffffffffffffffffffffffffffffffffffff16815260200190815260200160002054905092915050565b600160009054906101000a900473ffffffffffffffffffffffffffffffffffffffff1673ffffffffffffffffffffffffffffffffffffffff163373ffffffffffffffffffffffffffffffffffffffff161415611f1a57600073ffffffffffffffffffffffffffffffffffffffff168173ffffffffffffffffffffffffffffffffffffffff16141515611f195780600160006101000a81548173ffffffffffffffffffffffffffffffffffffffff021916908373ffffffffffffffffffffffffffffffffffffffff1602179055505b5b50565b600b5481565b60055481565b600460009054906101000a900473ffffffffffffffffffffffffffffffffffffffff1673ffffffffffffffffffffffffffffffffffffffff163373ffffffffffffffffffffffffffffffffffffffff1614158015611fd55750600160009054906101000a900473ffffffffffffffffffffffffffffffffffffffff1673ffffffffffffffffffffffffffffffffffffffff163373ffffffffffffffffffffffffffffffffffffffff1614155b15611fdf57600080fd5b6001600360006101000a81548160ff0219169083151502179055507f0f2e5b6c72c6a4491efd919a9f9a409f324ef0708c11ee57d410c2cb06c0992b60405160405180910390a1565b60008061204261203a34601754612167565b600c5461219f565b9050600d5460075401431115156120725761206961206282601254612167565b606461219f565b8101915061212e565b600e5460075401431115156120a05761209761209082601354612167565b606461219f565b8101915061212e565b600f5460075401431115156120ce576120c56120be82601454612167565b606461219f565b8101915061212e565b60105460075401431115156120fc576120f36120ec82601554612167565b606461219f565b8101915061212e565b601154600754014311151561212a5761212161211a82601654612167565b606461219f565b8101915061212e565b8091505b5090565b6000818301905082811015151561214557fe5b80905092915050565b600082821115151561215c57fe5b818303905092915050565b60008083141561217a5760009050612199565b818302905081838281151561218b57fe5b0414151561219557fe5b8090505b92915050565b600081838115156121ac57fe5b049050929150505600a165627a7a723058208022360149119180e38c80467934253fea9d40eb540b0ba96a936b85c8eb9e1e0029",
  "source": "pragma solidity ^0.4.22;\n\nimport 'openzeppelin-solidity/contracts/math/SafeMath.sol';\n\n/**\n * @title ERC20 interface\n */\ncontract ERC20 {\n    uint public totalSupply;\n\n    function balanceOf(address who) constant returns (uint);\n\n    function allowance(address owner, address spender) constant returns (uint);\n\n    function transfer(address to, uint value) returns (bool ok);\n\n    function transferFrom(address from, address to, uint value) returns (bool ok);\n\n    function approve(address spender, uint value) returns (bool ok);\n\n    event Transfer(address indexed from, address indexed to, uint value);\n    event Approval(address indexed owner, address indexed spender, uint value);\n}\n\n\n/**\n * @title Ownable\n * @dev The Ownable contract has an owner address, and provides basic authorization control\n * functions, this simplifies the implementation of \"user permissions\".\n */\ncontract Ownable {\n    address public owner;\n\n    function Ownable() {\n        owner = msg.sender;\n    }\n\n    function transferOwnership(address newOwner) onlyOwner {\n        if (newOwner != address(0))\n            owner = newOwner;\n    }\n\n    function kill() {\n        if (msg.sender == owner)\n            selfdestruct(owner);\n    }\n\n    modifier onlyOwner() {\n        if (msg.sender == owner)\n            _;\n    }\n}\n\n\n// Token Contract\ncontract CCOIN is ERC20, Ownable {\n    // Public variables of the token\n    string public constant name = \"CCOIN\";\n    string public constant symbol = \"CCOIN\";\n    uint public constant decimals = 18;\n    uint public totalSupply = 1000000000 * 10 ** 18;\n    bool public locked;\n\n    address public multisigETH; // SafeMath.multisig contract that will receive the ETH\n    address public crowdSaleaddress; // Crowdsale address\n    uint public ethReceived; // Number of ETH received\n    uint public totalTokensSent; // Number of tokens sent to ETH contributors\n    uint public startBlock; // Crowdsale start block\n    uint public endBlock; // Crowdsale end block\n    uint public maxCap; // Maximum number of token to sell\n    uint public minCap; // Minimum number of ETH to raise\n    uint public minContributionETH; // Minimum amount to invest\n    uint public tokenPriceWei;\n\n    uint firstPeriod;\n    uint secondPeriod;\n    uint thirdPeriod;\n    uint fourthPeriod;\n    uint fifthPeriod;\n    uint firstBonus;\n    uint secondBonus;\n    uint thirdBonus;\n    uint fourthBonus;\n    uint fifthBonus;\n    uint public multiplier;\n\n    bool public stopInEmergency = false;\n\n    mapping(address => uint) balances;\n    mapping(address => mapping(address => uint)) allowed;\n\n    // Whitelist\n    mapping(address => bool) public whitelisted;\n\n    event Whitelist(address indexed participant);\n    event Locked();\n    event Unlocked();\n    event StoppedCrowdsale();\n    event RestartedCrowdsale();\n    event Burned(uint256 value);\n\n    // Lock transfer during the ICO\n    modifier onlyUnlocked() {\n        if (msg.sender != crowdSaleaddress && locked && msg.sender != owner)\n            revert();\n        _;\n    }\n\n    // @notice to protect short address attack\n    modifier onlyPayloadSize(uint numWords){\n        assert(msg.data.length >= numWords * 32 + 4);\n        _;\n    }\n\n    modifier onlyAuthorized() {\n        if (msg.sender != crowdSaleaddress && msg.sender != owner)\n            revert();\n        _;\n    }\n\n    // The Token constructor\n    constructor() public {\n        locked = true;\n        multiplier = 10 ** 18;\n\n        multisigETH = msg.sender;\n        minContributionETH = 1;\n        startBlock = 0;\n        endBlock = 0;\n        maxCap = 1000 * multiplier;\n        tokenPriceWei = SafeMath.div(1, 1400);\n        minCap = 100 * multiplier;\n        totalTokensSent = 0;\n        firstPeriod = 100;\n        secondPeriod = 200;\n        thirdPeriod = 300;\n        fourthPeriod = 400;\n        fifthPeriod = 500;\n\n        firstBonus = 120;\n        secondBonus = 115;\n        thirdBonus = 110;\n        fourthBonus = SafeMath.div(1075, 10);\n        fifthBonus = 105;\n        balances[multisigETH] = totalSupply;\n    }\n\n    function resetCrowdSaleaddress(address _newCrowdSaleaddress) public onlyAuthorized() {\n        crowdSaleaddress = _newCrowdSaleaddress;\n    }\n\n    function unlock() public onlyAuthorized {\n        locked = false;\n        emit Unlocked();\n    }\n\n    function lock() public onlyAuthorized {\n        locked = true;\n        emit Locked();\n    }\n\n    function burn(address _member, uint256 _value) public onlyAuthorized returns (bool) {\n        balances[_member] = SafeMath.sub(balances[_member], _value);\n        totalSupply = SafeMath.sub(totalSupply, _value);\n        emit Transfer(_member, 0x0, _value);\n        emit Burned(_value);\n        return true;\n    }\n\n    function Airdrop(address _to, uint256 _tokens) external onlyAuthorized returns(bool) {\n        require(transfer(_to, _tokens));\n    } \n\n    function transfer(address _to, uint _value) public onlyUnlocked returns (bool) {\n        balances[msg.sender] = SafeMath.sub(balances[msg.sender], _value);\n        balances[_to] = SafeMath.add(balances[_to], _value);\n        emit Transfer(msg.sender, _to, _value);\n        return true;\n    }\n\n    /* A contract attempts to get the coins */\n    function transferFrom(address _from, address _to, uint256 _value) public onlyUnlocked returns (bool success) {\n        if (balances[_from] < _value)\n            revert();\n        // Check if the sender has enough\n        if (_value > allowed[_from][msg.sender])\n            revert();\n        // Check allowance\n        balances[_from] = SafeMath.sub(balances[_from], _value);\n        // SafeMath.subtract from the sender\n        balances[_to] = SafeMath.add(balances[_to], _value);\n        // SafeMath.add the same to the recipient\n        allowed[_from][msg.sender] = SafeMath.sub(allowed[_from][msg.sender], _value);\n        emit Transfer(_from, _to, _value);\n        return true;\n    }\n\n    function balanceOf(address _owner) public constant returns (uint balance) {\n        return balances[_owner];\n    }\n\n    function approve(address _spender, uint _value) public returns (bool) {\n        allowed[msg.sender][_spender] = _value;\n        emit Approval(msg.sender, _spender, _value);\n        return true;\n    }\n\n    function allowance(address _owner, address _spender) public constant returns (uint remaining) {\n        return allowed[_owner][_spender];\n    }\n\n    function WhitelistParticipant(address participant) external onlyAuthorized {\n        whitelisted[participant] = true;\n        emit Whitelist(participant);\n    }\n\n    function BlacklistParticipant(address participant) external onlyAuthorized {\n        whitelisted[participant] = false;\n        emit Whitelist(participant);\n    }\n\n    // {fallback function}\n    // @notice It will call internal function which handles allocation of Ether and calculates tokens.\n    function() public payable onlyPayloadSize(2) {\n        contribute(msg.sender);\n    }\n\n    // @notice It will be called by fallback function whenever ether is sent to it\n    // @param  _backer {address} address of beneficiary\n    // @return res {bool} true if transaction was successful\n    function contribute(address _backer) internal returns (bool res) {\n        // stop when required minimum is not sent\n        if (msg.value < minContributionETH)\n            revert();\n\n        // calculate number of tokens\n        uint tokensToSend = calculateNoOfTokensToSend();\n\n        // Ensure that max cap hasn't been reached\n        if (SafeMath.add(totalTokensSent, tokensToSend) > maxCap)\n            revert();\n\n        // Transfer tokens to contributor\n        if (!transfer(_backer, tokensToSend))\n            revert();\n\n        ethReceived = SafeMath.add(ethReceived, msg.value);\n        totalTokensSent = SafeMath.add(totalTokensSent, tokensToSend);\n\n        return true;\n    }\n\n    // @notice This function will return number of tokens based on time intervals in the campaign\n    function calculateNoOfTokensToSend() constant internal returns (uint) {\n        uint tokenAmount = SafeMath.div(SafeMath.mul(msg.value, multiplier), tokenPriceWei);\n        if (block.number <= startBlock + firstPeriod)\n            return tokenAmount + SafeMath.div(SafeMath.mul(tokenAmount, firstBonus), 100);\n        else if (block.number <= startBlock + secondPeriod)\n            return tokenAmount + SafeMath.div(SafeMath.mul(tokenAmount, secondBonus), 100);\n        else if (block.number <= startBlock + thirdPeriod)\n            return tokenAmount + SafeMath.div(SafeMath.mul(tokenAmount, thirdBonus), 100);\n        else if (block.number <= startBlock + fourthPeriod)\n            return tokenAmount + SafeMath.div(SafeMath.mul(tokenAmount, fourthBonus), 100);\n        else if (block.number <= startBlock + fifthPeriod)\n            return tokenAmount + SafeMath.div(SafeMath.mul(tokenAmount, fifthBonus), 100);\n        else\n            return tokenAmount;\n    }\n\n    function stopCrowdsale() external onlyOwner{\n        stopInEmergency = true;\n        emit StoppedCrowdsale();\n    }\n\n    function restartCrowdsale() external onlyOwner{\n        stopInEmergency = false;\n        emit RestartedCrowdsale();\n    }\n\n}\n",
  "sourcePath": "/Users/kc1116/Desktop/credit-coin/tokencontract/contracts/CCOIN.sol",
  "compiler": {
    "name": "solc",
    "version": "0.4.24+commit.e67f0147.Emscripten.clang"
  },
  "schemaVersion": "2.0.0",
  "updatedAt": "2018-06-17T09:03:17.363Z"
}