{
  "contractName": "Ownable",
  "abi": [
    {
      "constant": true,
      "inputs": [],
      "name": "owner",
      "outputs": [
        {
          "name": "",
          "type": "address"
        }
      ],
      "payable": false,
      "stateMutability": "view",
      "type": "function"
    },
    {
      "inputs": [],
      "payable": false,
      "stateMutability": "nonpayable",
      "type": "constructor"
    },
    {
      "constant": false,
      "inputs": [
        {
          "name": "newOwner",
          "type": "address"
        }
      ],
      "name": "transferOwnership",
      "outputs": [],
      "payable": false,
      "stateMutability": "nonpayable",
      "type": "function"
    },
    {
      "constant": false,
      "inputs": [],
      "name": "kill",
      "outputs": [],
      "payable": false,
      "stateMutability": "nonpayable",
      "type": "function"
    }
  ],
  "bytecode": "0x608060405234801561001057600080fd5b50336000806101000a81548173ffffffffffffffffffffffffffffffffffffffff021916908373ffffffffffffffffffffffffffffffffffffffff1602179055506102bf806100606000396000f300608060405260043610610057576000357c0100000000000000000000000000000000000000000000000000000000900463ffffffff16806341c0e1b51461005c5780638da5cb5b14610073578063f2fde38b146100ca575b600080fd5b34801561006857600080fd5b5061007161010d565b005b34801561007f57600080fd5b5061008861019e565b604051808273ffffffffffffffffffffffffffffffffffffffff1673ffffffffffffffffffffffffffffffffffffffff16815260200191505060405180910390f35b3480156100d657600080fd5b5061010b600480360381019080803573ffffffffffffffffffffffffffffffffffffffff1690602001909291905050506101c3565b005b6000809054906101000a900473ffffffffffffffffffffffffffffffffffffffff1673ffffffffffffffffffffffffffffffffffffffff163373ffffffffffffffffffffffffffffffffffffffff16141561019c576000809054906101000a900473ffffffffffffffffffffffffffffffffffffffff1673ffffffffffffffffffffffffffffffffffffffff16ff5b565b6000809054906101000a900473ffffffffffffffffffffffffffffffffffffffff1681565b6000809054906101000a900473ffffffffffffffffffffffffffffffffffffffff1673ffffffffffffffffffffffffffffffffffffffff163373ffffffffffffffffffffffffffffffffffffffff16141561029057600073ffffffffffffffffffffffffffffffffffffffff168173ffffffffffffffffffffffffffffffffffffffff1614151561028f57806000806101000a81548173ffffffffffffffffffffffffffffffffffffffff021916908373ffffffffffffffffffffffffffffffffffffffff1602179055505b5b505600a165627a7a7230582038ef7ca12364ce2e1d0d72fb4eadb4b4ff3cdf09ae6e6c57b31fbe87d5c931870029",
  "source": "pragma solidity ^0.4.22;\n\nimport 'openzeppelin-solidity/contracts/math/SafeMath.sol';\n\n/**\n * @title ERC20 interface\n */\ncontract ERC20 {\n    uint public totalSupply;\n\n    function balanceOf(address who) constant returns (uint);\n\n    function allowance(address owner, address spender) constant returns (uint);\n\n    function transfer(address to, uint value) returns (bool ok);\n\n    function transferFrom(address from, address to, uint value) returns (bool ok);\n\n    function approve(address spender, uint value) returns (bool ok);\n\n    event Transfer(address indexed from, address indexed to, uint value);\n    event Approval(address indexed owner, address indexed spender, uint value);\n}\n\n\n/**\n * @title Ownable\n * @dev The Ownable contract has an owner address, and provides basic authorization control\n * functions, this simplifies the implementation of \"user permissions\".\n */\ncontract Ownable {\n    address public owner;\n\n    function Ownable() {\n        owner = msg.sender;\n    }\n\n    function transferOwnership(address newOwner) onlyOwner {\n        if (newOwner != address(0))\n            owner = newOwner;\n    }\n\n    function kill() {\n        if (msg.sender == owner)\n            selfdestruct(owner);\n    }\n\n    modifier onlyOwner() {\n        if (msg.sender == owner)\n            _;\n    }\n}\n\n\n// Token Contract\ncontract CCOIN is ERC20, Ownable {\n    // Public variables of the token\n    string public constant name = \"CCOIN\";\n    string public constant symbol = \"CCOIN\";\n    uint public constant decimals = 18;\n    uint public totalSupply = 1000000000 * 10 ** 18;\n    bool public locked;\n\n    address public multisigETH; // SafeMath.multisig contract that will receive the ETH\n    address public crowdSaleaddress; // Crowdsale address\n    uint public ethReceived; // Number of ETH received\n    uint public totalTokensSent; // Number of tokens sent to ETH contributors\n    uint public startBlock; // Crowdsale start block\n    uint public endBlock; // Crowdsale end block\n    uint public maxCap; // Maximum number of token to sell\n    uint public minCap; // Minimum number of ETH to raise\n    uint public minContributionETH; // Minimum amount to invest\n    uint public tokenPriceWei;\n\n    uint firstPeriod;\n    uint secondPeriod;\n    uint thirdPeriod;\n    uint fourthPeriod;\n    uint fifthPeriod;\n    uint firstBonus;\n    uint secondBonus;\n    uint thirdBonus;\n    uint fourthBonus;\n    uint fifthBonus;\n    uint public multiplier;\n\n    bool public stopInEmergency = false;\n\n    mapping(address => uint) balances;\n    mapping(address => mapping(address => uint)) allowed;\n\n    // Whitelist\n    mapping(address => bool) public whitelisted;\n\n    event Whitelist(address indexed participant);\n    event Locked();\n    event Unlocked();\n    event StoppedCrowdsale();\n    event RestartedCrowdsale();\n    event Burned(uint256 value);\n\n    // Lock transfer during the ICO\n    modifier onlyUnlocked() {\n        if (msg.sender != crowdSaleaddress && locked && msg.sender != owner)\n            revert();\n        _;\n    }\n\n    // @notice to protect short address attack\n    modifier onlyPayloadSize(uint numWords){\n        assert(msg.data.length >= numWords * 32 + 4);\n        _;\n    }\n\n    modifier onlyAuthorized() {\n        if (msg.sender != crowdSaleaddress && msg.sender != owner)\n            revert();\n        _;\n    }\n\n    // The Token constructor\n    constructor() public {\n        locked = true;\n        multiplier = 10 ** 18;\n\n        multisigETH = msg.sender;\n        minContributionETH = 1;\n        startBlock = 0;\n        endBlock = 0;\n        maxCap = 1000 * multiplier;\n        tokenPriceWei = SafeMath.div(1, 1400);\n        minCap = 100 * multiplier;\n        totalTokensSent = 0;\n        firstPeriod = 100;\n        secondPeriod = 200;\n        thirdPeriod = 300;\n        fourthPeriod = 400;\n        fifthPeriod = 500;\n\n        firstBonus = 120;\n        secondBonus = 115;\n        thirdBonus = 110;\n        fourthBonus = SafeMath.div(1075, 10);\n        fifthBonus = 105;\n        balances[multisigETH] = totalSupply;\n    }\n\n    function resetCrowdSaleaddress(address _newCrowdSaleaddress) public onlyAuthorized() {\n        crowdSaleaddress = _newCrowdSaleaddress;\n    }\n\n    function unlock() public onlyAuthorized {\n        locked = false;\n        emit Unlocked();\n    }\n\n    function lock() public onlyAuthorized {\n        locked = true;\n        emit Locked();\n    }\n\n    function burn(address _member, uint256 _value) public onlyAuthorized returns (bool) {\n        balances[_member] = SafeMath.sub(balances[_member], _value);\n        totalSupply = SafeMath.sub(totalSupply, _value);\n        emit Transfer(_member, 0x0, _value);\n        emit Burned(_value);\n        return true;\n    }\n\n    function Airdrop(address _to, uint256 _tokens) external onlyAuthorized returns(bool) {\n        require(transfer(_to, _tokens));\n    } \n\n    function transfer(address _to, uint _value) public onlyUnlocked returns (bool) {\n        balances[msg.sender] = SafeMath.sub(balances[msg.sender], _value);\n        balances[_to] = SafeMath.add(balances[_to], _value);\n        emit Transfer(msg.sender, _to, _value);\n        return true;\n    }\n\n    /* A contract attempts to get the coins */\n    function transferFrom(address _from, address _to, uint256 _value) public onlyUnlocked returns (bool success) {\n        if (balances[_from] < _value)\n            revert();\n        // Check if the sender has enough\n        if (_value > allowed[_from][msg.sender])\n            revert();\n        // Check allowance\n        balances[_from] = SafeMath.sub(balances[_from], _value);\n        // SafeMath.subtract from the sender\n        balances[_to] = SafeMath.add(balances[_to], _value);\n        // SafeMath.add the same to the recipient\n        allowed[_from][msg.sender] = SafeMath.sub(allowed[_from][msg.sender], _value);\n        emit Transfer(_from, _to, _value);\n        return true;\n    }\n\n    function balanceOf(address _owner) public constant returns (uint balance) {\n        return balances[_owner];\n    }\n\n    function approve(address _spender, uint _value) public returns (bool) {\n        allowed[msg.sender][_spender] = _value;\n        emit Approval(msg.sender, _spender, _value);\n        return true;\n    }\n\n    function allowance(address _owner, address _spender) public constant returns (uint remaining) {\n        return allowed[_owner][_spender];\n    }\n\n    function WhitelistParticipant(address participant) external onlyAuthorized {\n        whitelisted[participant] = true;\n        emit Whitelist(participant);\n    }\n\n    function BlacklistParticipant(address participant) external onlyAuthorized {\n        whitelisted[participant] = false;\n        emit Whitelist(participant);\n    }\n\n    // {fallback function}\n    // @notice It will call internal function which handles allocation of Ether and calculates tokens.\n    function() public payable onlyPayloadSize(2) {\n        contribute(msg.sender);\n    }\n\n    // @notice It will be called by fallback function whenever ether is sent to it\n    // @param  _backer {address} address of beneficiary\n    // @return res {bool} true if transaction was successful\n    function contribute(address _backer) internal returns (bool res) {\n        // stop when required minimum is not sent\n        if (msg.value < minContributionETH)\n            revert();\n\n        // calculate number of tokens\n        uint tokensToSend = calculateNoOfTokensToSend();\n\n        // Ensure that max cap hasn't been reached\n        if (SafeMath.add(totalTokensSent, tokensToSend) > maxCap)\n            revert();\n\n        // Transfer tokens to contributor\n        if (!transfer(_backer, tokensToSend))\n            revert();\n\n        ethReceived = SafeMath.add(ethReceived, msg.value);\n        totalTokensSent = SafeMath.add(totalTokensSent, tokensToSend);\n\n        return true;\n    }\n\n    // @notice This function will return number of tokens based on time intervals in the campaign\n    function calculateNoOfTokensToSend() constant internal returns (uint) {\n        uint tokenAmount = SafeMath.div(SafeMath.mul(msg.value, multiplier), tokenPriceWei);\n        if (block.number <= startBlock + firstPeriod)\n            return tokenAmount + SafeMath.div(SafeMath.mul(tokenAmount, firstBonus), 100);\n        else if (block.number <= startBlock + secondPeriod)\n            return tokenAmount + SafeMath.div(SafeMath.mul(tokenAmount, secondBonus), 100);\n        else if (block.number <= startBlock + thirdPeriod)\n            return tokenAmount + SafeMath.div(SafeMath.mul(tokenAmount, thirdBonus), 100);\n        else if (block.number <= startBlock + fourthPeriod)\n            return tokenAmount + SafeMath.div(SafeMath.mul(tokenAmount, fourthBonus), 100);\n        else if (block.number <= startBlock + fifthPeriod)\n            return tokenAmount + SafeMath.div(SafeMath.mul(tokenAmount, fifthBonus), 100);\n        else\n            return tokenAmount;\n    }\n\n    function stopCrowdsale() external onlyOwner{\n        stopInEmergency = true;\n        emit StoppedCrowdsale();\n    }\n\n    function restartCrowdsale() external onlyOwner{\n        stopInEmergency = false;\n        emit RestartedCrowdsale();\n    }\n\n}\n",
  "sourcePath": "/Users/kc1116/Desktop/credit-coin/tokencontract/contracts/CCOIN.sol",
  "compiler": {
    "name": "solc",
    "version": "0.4.24+commit.e67f0147.Emscripten.clang"
  },
  "schemaVersion": "2.0.0",
  "updatedAt": "2018-06-17T09:01:37.860Z"
}